{
  "contractName": "MyToken",
  "abi": [
    {
      "inputs": [],
      "stateMutability": "nonpayable",
      "type": "constructor"
    },
    {
      "inputs": [],
      "name": "InvalidShortString",
      "type": "error"
    },
    {
      "inputs": [
        {
          "internalType": "string",
          "name": "str",
          "type": "string"
        }
      ],
      "name": "StringTooLong",
      "type": "error"
    },
    {
      "anonymous": false,
      "inputs": [
        {
          "indexed": true,
          "internalType": "address",
          "name": "voter",
          "type": "address"
        },
        {
          "indexed": false,
          "internalType": "uint256",
          "name": "power",
          "type": "uint256"
        }
      ],
      "name": "AbstainVote",
      "type": "event"
    },
    {
      "anonymous": false,
      "inputs": [
        {
          "indexed": true,
          "internalType": "address",
          "name": "owner",
          "type": "address"
        },
        {
          "indexed": true,
          "internalType": "address",
          "name": "spender",
          "type": "address"
        },
        {
          "indexed": false,
          "internalType": "uint256",
          "name": "value",
          "type": "uint256"
        }
      ],
      "name": "Approval",
      "type": "event"
    },
    {
      "anonymous": false,
      "inputs": [
        {
          "indexed": true,
          "internalType": "address",
          "name": "delegator",
          "type": "address"
        },
        {
          "indexed": true,
          "internalType": "address",
          "name": "fromDelegate",
          "type": "address"
        },
        {
          "indexed": true,
          "internalType": "address",
          "name": "toDelegate",
          "type": "address"
        }
      ],
      "name": "DelegateChanged",
      "type": "event"
    },
    {
      "anonymous": false,
      "inputs": [
        {
          "indexed": true,
          "internalType": "address",
          "name": "delegate",
          "type": "address"
        },
        {
          "indexed": false,
          "internalType": "uint256",
          "name": "previousBalance",
          "type": "uint256"
        },
        {
          "indexed": false,
          "internalType": "uint256",
          "name": "newBalance",
          "type": "uint256"
        }
      ],
      "name": "DelegateVotesChanged",
      "type": "event"
    },
    {
      "anonymous": false,
      "inputs": [],
      "name": "EIP712DomainChanged",
      "type": "event"
    },
    {
      "anonymous": false,
      "inputs": [
        {
          "indexed": true,
          "internalType": "address",
          "name": "to",
          "type": "address"
        },
        {
          "indexed": false,
          "internalType": "uint256",
          "name": "amount",
          "type": "uint256"
        }
      ],
      "name": "Mint",
      "type": "event"
    },
    {
      "anonymous": false,
      "inputs": [
        {
          "indexed": true,
          "internalType": "address",
          "name": "voter",
          "type": "address"
        },
        {
          "indexed": false,
          "internalType": "uint256",
          "name": "power",
          "type": "uint256"
        }
      ],
      "name": "NoVote",
      "type": "event"
    },
    {
      "anonymous": false,
      "inputs": [
        {
          "indexed": true,
          "internalType": "address",
          "name": "previousOwner",
          "type": "address"
        },
        {
          "indexed": true,
          "internalType": "address",
          "name": "newOwner",
          "type": "address"
        }
      ],
      "name": "OwnershipTransferred",
      "type": "event"
    },
    {
      "anonymous": false,
      "inputs": [
        {
          "indexed": false,
          "internalType": "address",
          "name": "account",
          "type": "address"
        }
      ],
      "name": "Paused",
      "type": "event"
    },
    {
      "anonymous": false,
      "inputs": [
        {
          "indexed": true,
          "internalType": "address",
          "name": "from",
          "type": "address"
        },
        {
          "indexed": true,
          "internalType": "address",
          "name": "to",
          "type": "address"
        },
        {
          "indexed": false,
          "internalType": "uint256",
          "name": "value",
          "type": "uint256"
        }
      ],
      "name": "Transfer",
      "type": "event"
    },
    {
      "anonymous": false,
      "inputs": [
        {
          "indexed": false,
          "internalType": "address",
          "name": "account",
          "type": "address"
        }
      ],
      "name": "Unpaused",
      "type": "event"
    },
    {
      "anonymous": false,
      "inputs": [
        {
          "indexed": true,
          "internalType": "address",
          "name": "voter",
          "type": "address"
        },
        {
          "indexed": false,
          "internalType": "uint256",
          "name": "power",
          "type": "uint256"
        }
      ],
      "name": "YesVote",
      "type": "event"
    },
    {
      "inputs": [],
      "name": "CLOCK_MODE",
      "outputs": [
        {
          "internalType": "string",
          "name": "",
          "type": "string"
        }
      ],
      "stateMutability": "view",
      "type": "function",
      "constant": true
    },
    {
      "inputs": [],
      "name": "DOMAIN_SEPARATOR",
      "outputs": [
        {
          "internalType": "bytes32",
          "name": "",
          "type": "bytes32"
        }
      ],
      "stateMutability": "view",
      "type": "function",
      "constant": true
    },
    {
      "inputs": [
        {
          "internalType": "address",
          "name": "owner",
          "type": "address"
        },
        {
          "internalType": "address",
          "name": "spender",
          "type": "address"
        }
      ],
      "name": "allowance",
      "outputs": [
        {
          "internalType": "uint256",
          "name": "",
          "type": "uint256"
        }
      ],
      "stateMutability": "view",
      "type": "function",
      "constant": true
    },
    {
      "inputs": [
        {
          "internalType": "address",
          "name": "spender",
          "type": "address"
        },
        {
          "internalType": "uint256",
          "name": "amount",
          "type": "uint256"
        }
      ],
      "name": "approve",
      "outputs": [
        {
          "internalType": "bool",
          "name": "",
          "type": "bool"
        }
      ],
      "stateMutability": "nonpayable",
      "type": "function"
    },
    {
      "inputs": [
        {
          "internalType": "address",
          "name": "account",
          "type": "address"
        }
      ],
      "name": "balanceOf",
      "outputs": [
        {
          "internalType": "uint256",
          "name": "",
          "type": "uint256"
        }
      ],
      "stateMutability": "view",
      "type": "function",
      "constant": true
    },
    {
      "inputs": [
        {
          "internalType": "uint256",
          "name": "amount",
          "type": "uint256"
        }
      ],
      "name": "burn",
      "outputs": [],
      "stateMutability": "nonpayable",
      "type": "function"
    },
    {
      "inputs": [
        {
          "internalType": "address",
          "name": "account",
          "type": "address"
        },
        {
          "internalType": "uint256",
          "name": "amount",
          "type": "uint256"
        }
      ],
      "name": "burnFrom",
      "outputs": [],
      "stateMutability": "nonpayable",
      "type": "function"
    },
    {
      "inputs": [
        {
          "internalType": "address",
          "name": "account",
          "type": "address"
        },
        {
          "internalType": "uint32",
          "name": "pos",
          "type": "uint32"
        }
      ],
      "name": "checkpoints",
      "outputs": [
        {
          "components": [
            {
              "internalType": "uint32",
              "name": "fromBlock",
              "type": "uint32"
            },
            {
              "internalType": "uint224",
              "name": "votes",
              "type": "uint224"
            }
          ],
          "internalType": "struct ERC20Votes.Checkpoint",
          "name": "",
          "type": "tuple"
        }
      ],
      "stateMutability": "view",
      "type": "function",
      "constant": true
    },
    {
      "inputs": [],
      "name": "clock",
      "outputs": [
        {
          "internalType": "uint48",
          "name": "",
          "type": "uint48"
        }
      ],
      "stateMutability": "view",
      "type": "function",
      "constant": true
    },
    {
      "inputs": [
        {
          "internalType": "address",
          "name": "spender",
          "type": "address"
        },
        {
          "internalType": "uint256",
          "name": "subtractedValue",
          "type": "uint256"
        }
      ],
      "name": "decreaseAllowance",
      "outputs": [
        {
          "internalType": "bool",
          "name": "",
          "type": "bool"
        }
      ],
      "stateMutability": "nonpayable",
      "type": "function"
    },
    {
      "inputs": [
        {
          "internalType": "address",
          "name": "delegatee",
          "type": "address"
        }
      ],
      "name": "delegate",
      "outputs": [],
      "stateMutability": "nonpayable",
      "type": "function"
    },
    {
      "inputs": [
        {
          "internalType": "address",
          "name": "delegatee",
          "type": "address"
        },
        {
          "internalType": "uint256",
          "name": "nonce",
          "type": "uint256"
        },
        {
          "internalType": "uint256",
          "name": "expiry",
          "type": "uint256"
        },
        {
          "internalType": "uint8",
          "name": "v",
          "type": "uint8"
        },
        {
          "internalType": "bytes32",
          "name": "r",
          "type": "bytes32"
        },
        {
          "internalType": "bytes32",
          "name": "s",
          "type": "bytes32"
        }
      ],
      "name": "delegateBySig",
      "outputs": [],
      "stateMutability": "nonpayable",
      "type": "function"
    },
    {
      "inputs": [
        {
          "internalType": "address",
          "name": "account",
          "type": "address"
        }
      ],
      "name": "delegates",
      "outputs": [
        {
          "internalType": "address",
          "name": "",
          "type": "address"
        }
      ],
      "stateMutability": "view",
      "type": "function",
      "constant": true
    },
    {
      "inputs": [],
      "name": "eip712Domain",
      "outputs": [
        {
          "internalType": "bytes1",
          "name": "fields",
          "type": "bytes1"
        },
        {
          "internalType": "string",
          "name": "name",
          "type": "string"
        },
        {
          "internalType": "string",
          "name": "version",
          "type": "string"
        },
        {
          "internalType": "uint256",
          "name": "chainId",
          "type": "uint256"
        },
        {
          "internalType": "address",
          "name": "verifyingContract",
          "type": "address"
        },
        {
          "internalType": "bytes32",
          "name": "salt",
          "type": "bytes32"
        },
        {
          "internalType": "uint256[]",
          "name": "extensions",
          "type": "uint256[]"
        }
      ],
      "stateMutability": "view",
      "type": "function",
      "constant": true
    },
    {
      "inputs": [
        {
          "internalType": "uint256",
          "name": "timepoint",
          "type": "uint256"
        }
      ],
      "name": "getPastTotalSupply",
      "outputs": [
        {
          "internalType": "uint256",
          "name": "",
          "type": "uint256"
        }
      ],
      "stateMutability": "view",
      "type": "function",
      "constant": true
    },
    {
      "inputs": [
        {
          "internalType": "address",
          "name": "account",
          "type": "address"
        },
        {
          "internalType": "uint256",
          "name": "timepoint",
          "type": "uint256"
        }
      ],
      "name": "getPastVotes",
      "outputs": [
        {
          "internalType": "uint256",
          "name": "",
          "type": "uint256"
        }
      ],
      "stateMutability": "view",
      "type": "function",
      "constant": true
    },
    {
      "inputs": [
        {
          "internalType": "address",
          "name": "account",
          "type": "address"
        }
      ],
      "name": "getVotes",
      "outputs": [
        {
          "internalType": "uint256",
          "name": "",
          "type": "uint256"
        }
      ],
      "stateMutability": "view",
      "type": "function",
      "constant": true
    },
    {
      "inputs": [
        {
          "internalType": "address",
          "name": "spender",
          "type": "address"
        },
        {
          "internalType": "uint256",
          "name": "addedValue",
          "type": "uint256"
        }
      ],
      "name": "increaseAllowance",
      "outputs": [
        {
          "internalType": "bool",
          "name": "",
          "type": "bool"
        }
      ],
      "stateMutability": "nonpayable",
      "type": "function"
    },
    {
      "inputs": [],
      "name": "name",
      "outputs": [
        {
          "internalType": "string",
          "name": "",
          "type": "string"
        }
      ],
      "stateMutability": "view",
      "type": "function",
      "constant": true
    },
    {
      "inputs": [
        {
          "internalType": "address",
          "name": "owner",
          "type": "address"
        }
      ],
      "name": "nonces",
      "outputs": [
        {
          "internalType": "uint256",
          "name": "",
          "type": "uint256"
        }
      ],
      "stateMutability": "view",
      "type": "function",
      "constant": true
    },
    {
      "inputs": [
        {
          "internalType": "address",
          "name": "account",
          "type": "address"
        }
      ],
      "name": "numCheckpoints",
      "outputs": [
        {
          "internalType": "uint32",
          "name": "",
          "type": "uint32"
        }
      ],
      "stateMutability": "view",
      "type": "function",
      "constant": true
    },
    {
      "inputs": [],
      "name": "owner",
      "outputs": [
        {
          "internalType": "address",
          "name": "",
          "type": "address"
        }
      ],
      "stateMutability": "view",
      "type": "function",
      "constant": true
    },
    {
      "inputs": [],
      "name": "paused",
      "outputs": [
        {
          "internalType": "bool",
          "name": "",
          "type": "bool"
        }
      ],
      "stateMutability": "view",
      "type": "function",
      "constant": true
    },
    {
      "inputs": [
        {
          "internalType": "address",
          "name": "owner",
          "type": "address"
        },
        {
          "internalType": "address",
          "name": "spender",
          "type": "address"
        },
        {
          "internalType": "uint256",
          "name": "value",
          "type": "uint256"
        },
        {
          "internalType": "uint256",
          "name": "deadline",
          "type": "uint256"
        },
        {
          "internalType": "uint8",
          "name": "v",
          "type": "uint8"
        },
        {
          "internalType": "bytes32",
          "name": "r",
          "type": "bytes32"
        },
        {
          "internalType": "bytes32",
          "name": "s",
          "type": "bytes32"
        }
      ],
      "name": "permit",
      "outputs": [],
      "stateMutability": "nonpayable",
      "type": "function"
    },
    {
      "inputs": [],
      "name": "renounceOwnership",
      "outputs": [],
      "stateMutability": "nonpayable",
      "type": "function"
    },
    {
      "inputs": [],
      "name": "symbol",
      "outputs": [
        {
          "internalType": "string",
          "name": "",
          "type": "string"
        }
      ],
      "stateMutability": "view",
      "type": "function",
      "constant": true
    },
    {
      "inputs": [],
      "name": "tokenPrice",
      "outputs": [
        {
          "internalType": "uint256",
          "name": "",
          "type": "uint256"
        }
      ],
      "stateMutability": "view",
      "type": "function",
      "constant": true
    },
    {
      "inputs": [],
      "name": "totalAbstainVotes",
      "outputs": [
        {
          "internalType": "uint256",
          "name": "",
          "type": "uint256"
        }
      ],
      "stateMutability": "view",
      "type": "function",
      "constant": true
    },
    {
      "inputs": [],
      "name": "totalNoVotes",
      "outputs": [
        {
          "internalType": "uint256",
          "name": "",
          "type": "uint256"
        }
      ],
      "stateMutability": "view",
      "type": "function",
      "constant": true
    },
    {
      "inputs": [],
      "name": "totalSupply",
      "outputs": [
        {
          "internalType": "uint256",
          "name": "",
          "type": "uint256"
        }
      ],
      "stateMutability": "view",
      "type": "function",
      "constant": true
    },
    {
      "inputs": [],
      "name": "totalYesVotes",
      "outputs": [
        {
          "internalType": "uint256",
          "name": "",
          "type": "uint256"
        }
      ],
      "stateMutability": "view",
      "type": "function",
      "constant": true
    },
    {
      "inputs": [
        {
          "internalType": "address",
          "name": "to",
          "type": "address"
        },
        {
          "internalType": "uint256",
          "name": "amount",
          "type": "uint256"
        }
      ],
      "name": "transfer",
      "outputs": [
        {
          "internalType": "bool",
          "name": "",
          "type": "bool"
        }
      ],
      "stateMutability": "nonpayable",
      "type": "function"
    },
    {
      "inputs": [
        {
          "internalType": "address",
          "name": "from",
          "type": "address"
        },
        {
          "internalType": "address",
          "name": "to",
          "type": "address"
        },
        {
          "internalType": "uint256",
          "name": "amount",
          "type": "uint256"
        }
      ],
      "name": "transferFrom",
      "outputs": [
        {
          "internalType": "bool",
          "name": "",
          "type": "bool"
        }
      ],
      "stateMutability": "nonpayable",
      "type": "function"
    },
    {
      "inputs": [
        {
          "internalType": "address",
          "name": "newOwner",
          "type": "address"
        }
      ],
      "name": "transferOwnership",
      "outputs": [],
      "stateMutability": "nonpayable",
      "type": "function"
    },
    {
      "inputs": [
        {
          "internalType": "uint256",
          "name": "amount",
          "type": "uint256"
        }
      ],
      "name": "approveContract",
      "outputs": [],
      "stateMutability": "nonpayable",
      "type": "function"
    },
    {
      "inputs": [],
      "name": "pause",
      "outputs": [],
      "stateMutability": "nonpayable",
      "type": "function"
    },
    {
      "inputs": [],
      "name": "unpause",
      "outputs": [],
      "stateMutability": "nonpayable",
      "type": "function"
    },
    {
      "inputs": [
        {
          "internalType": "uint256",
          "name": "_tokenPrice",
          "type": "uint256"
        }
      ],
      "name": "setTokenPrice",
      "outputs": [],
      "stateMutability": "nonpayable",
      "type": "function"
    },
    {
      "inputs": [],
      "name": "decimals",
      "outputs": [
        {
          "internalType": "uint8",
          "name": "",
          "type": "uint8"
        }
      ],
      "stateMutability": "view",
      "type": "function",
      "constant": true
    },
    {
      "inputs": [],
      "name": "approveAll",
      "outputs": [
        {
          "internalType": "bool",
          "name": "",
          "type": "bool"
        }
      ],
      "stateMutability": "nonpayable",
      "type": "function"
    },
    {
      "inputs": [
        {
          "internalType": "address",
          "name": "to",
          "type": "address"
        }
      ],
      "name": "mint",
      "outputs": [],
      "stateMutability": "payable",
      "type": "function",
      "payable": true
    },
    {
      "inputs": [
        {
          "internalType": "uint256",
          "name": "amount",
          "type": "uint256"
        }
      ],
      "name": "voteYes",
      "outputs": [],
      "stateMutability": "nonpayable",
      "type": "function"
    },
    {
      "inputs": [
        {
          "internalType": "uint256",
          "name": "amount",
          "type": "uint256"
        }
      ],
      "name": "voteNo",
      "outputs": [],
      "stateMutability": "nonpayable",
      "type": "function"
    },
    {
      "inputs": [
        {
          "internalType": "uint256",
          "name": "amount",
          "type": "uint256"
        }
      ],
      "name": "voteAbstain",
      "outputs": [],
      "stateMutability": "nonpayable",
      "type": "function"
    }
  ],
  "bytecode": "0x6101606040526000600e556000600f5560006010553480156200002157600080fd5b50604051806040016040528060078152602001663a32b9ba23a7ab60c91b81525080604051806040016040528060018152602001603160f81b815250604051806040016040528060078152602001663a32b9ba23a7ab60c91b8152506040518060400160405280600381526020016223a7ab60e91b8152508160039081620000aa919062000311565b506004620000b9828262000311565b50506005805460ff1916905550620000d1336200018d565b620000de826006620001e7565b61012052620000ef816007620001e7565b61014052815160208084019190912060e052815190820120610100524660a0526200017d60e05161010051604080517f8b73c3c69bb8fe3d512ecc4cf759cc79239f7b179b0ffacaa9a75d522b39400f60208201529081019290925260608201524660808201523060a082015260009060c00160405160208183030381529060405280519060200120905090565b60805250503060c0525062000452565b600580546001600160a01b03838116610100818102610100600160a81b031985161790945560405193909204169182907f8be0079c531659141344cd1fd0a4f28419497f9722a3daafe3b4186f6b6457e090600090a35050565b60006020835110156200020757620001ff8362000220565b90506200021a565b8162000214848262000311565b5060ff90505b92915050565b600080829050601f8151111562000257578260405163305a27a960e01b81526004016200024e9190620003dd565b60405180910390fd5b805162000264826200042d565b179392505050565b634e487b7160e01b600052604160045260246000fd5b600181811c908216806200029757607f821691505b602082108103620002b857634e487b7160e01b600052602260045260246000fd5b50919050565b601f8211156200030c57600081815260208120601f850160051c81016020861015620002e75750805b601f850160051c820191505b818110156200030857828155600101620002f3565b5050505b505050565b81516001600160401b038111156200032d576200032d6200026c565b62000345816200033e845462000282565b84620002be565b602080601f8311600181146200037d5760008415620003645750858301515b600019600386901b1c1916600185901b17855562000308565b600085815260208120601f198616915b82811015620003ae578886015182559484019460019091019084016200038d565b5085821015620003cd5787850151600019600388901b60f8161c191681555b5050505050600190811b01905550565b600060208083528351808285015260005b818110156200040c57858101830151858201604001528201620003ee565b506000604082860101526040601f19601f8301168501019250505092915050565b80516020808301519190811015620002b85760001960209190910360031b1b16919050565b60805160a05160c05160e051610100516101205161014051612d6c620004ad6000396000610e2401526000610df9015260006117ec015260006117c40152600061171f01526000611749015260006117730152612d6c6000f3fe6080604052600436106102675760003560e01c80636a61e5fc116101445780638e539e8c116100b6578063a9059cbb1161007a578063a9059cbb14610731578063c3cda52014610751578063d505accf14610771578063dd62ed3e14610791578063f1127ed8146107b1578063f2fde38b146107fb57600080fd5b80638e539e8c1461069057806391ddadf4146106b057806395d89b41146106dc5780639ab24eb0146106f1578063a457c2d71461071157600080fd5b806379cc67901161010857806379cc6790146105da5780637ecebe00146105fa5780637ff9b5961461061a5780638456cb591461063057806384b0196e146106455780638da5cb5b1461066d57600080fd5b80636a61e5fc146105275780636a627842146105475780636fcfff451461055a57806370a082311461058f578063715018a6146105c557600080fd5b806339509351116101dd5780634bf5d7e9116101a15780634bf5d7e914610449578063587cde1e1461045e5780635c19a95c146104af5780635c975abb146104cf57806362c35c01146104e75780636a1cf7211461050757600080fd5b806339509351146103be5780633a46b1a8146103de5780633f4ba83a146103fe57806341cba4451461041357806342966c681461042957600080fd5b80631a6f7be51161022f5780631a6f7be5146103165780631cbc1ef61461033857806323b872dd14610358578063313ce567146103785780633644e51514610394578063380d0c08146103a957600080fd5b806306fdde031461026c578063095ea7b3146102975780631301c8b1146102c7578063134f0584146102eb57806318160ddd14610301575b600080fd5b34801561027857600080fd5b5061028161081b565b60405161028e9190612822565b60405180910390f35b3480156102a357600080fd5b506102b76102b2366004612851565b6108ad565b604051901515815260200161028e565b3480156102d357600080fd5b506102dd600e5481565b60405190815260200161028e565b3480156102f757600080fd5b506102dd600f5481565b34801561030d57600080fd5b506002546102dd565b34801561032257600080fd5b5061033661033136600461287b565b6108c7565b005b34801561034457600080fd5b5061033661035336600461287b565b610983565b34801561036457600080fd5b506102b7610373366004612894565b610a2f565b34801561038457600080fd5b506040516012815260200161028e565b3480156103a057600080fd5b506102dd610a53565b3480156103b557600080fd5b506102b7610a62565b3480156103ca57600080fd5b506102b76103d9366004612851565b610a85565b3480156103ea57600080fd5b506102dd6103f9366004612851565b610aa7565b34801561040a57600080fd5b50610336610b2c565b34801561041f57600080fd5b506102dd60105481565b34801561043557600080fd5b5061033661044436600461287b565b610b3e565b34801561045557600080fd5b50610281610b4b565b34801561046a57600080fd5b506104976104793660046128d0565b6001600160a01b039081166000908152600a60205260409020541690565b6040516001600160a01b03909116815260200161028e565b3480156104bb57600080fd5b506103366104ca3660046128d0565b610be3565b3480156104db57600080fd5b5060055460ff166102b7565b3480156104f357600080fd5b5061033661050236600461287b565b610bed565b34801561051357600080fd5b5061033661052236600461287b565b610bfb565b34801561053357600080fd5b5061033661054236600461287b565b610ca7565b6103366105553660046128d0565b610cb4565b34801561056657600080fd5b5061057a6105753660046128d0565b610d74565b60405163ffffffff909116815260200161028e565b34801561059b57600080fd5b506102dd6105aa3660046128d0565b6001600160a01b031660009081526020819052604090205490565b3480156105d157600080fd5b50610336610d96565b3480156105e657600080fd5b506103366105f5366004612851565b610da8565b34801561060657600080fd5b506102dd6106153660046128d0565b610dbd565b34801561062657600080fd5b506102dd600d5481565b34801561063c57600080fd5b50610336610ddb565b34801561065157600080fd5b5061065a610deb565b60405161028e97969594939291906128eb565b34801561067957600080fd5b5060055461010090046001600160a01b0316610497565b34801561069c57600080fd5b506102dd6106ab36600461287b565b610e74565b3480156106bc57600080fd5b506106c5610edb565b60405165ffffffffffff909116815260200161028e565b3480156106e857600080fd5b50610281610ee6565b3480156106fd57600080fd5b506102dd61070c3660046128d0565b610ef5565b34801561071d57600080fd5b506102b761072c366004612851565b610f77565b34801561073d57600080fd5b506102b761074c366004612851565b610ff2565b34801561075d57600080fd5b5061033661076c366004612992565b611000565b34801561077d57600080fd5b5061033661078c3660046129ea565b611136565b34801561079d57600080fd5b506102dd6107ac366004612a54565b61129a565b3480156107bd57600080fd5b506107d16107cc366004612a87565b6112c5565b60408051825163ffffffff1681526020928301516001600160e01b0316928101929092520161028e565b34801561080757600080fd5b506103366108163660046128d0565b611349565b60606003805461082a90612ac7565b80601f016020809104026020016040519081016040528092919081815260200182805461085690612ac7565b80156108a35780601f10610878576101008083540402835291602001916108a3565b820191906000526020600020905b81548152906001019060200180831161088657829003601f168201915b5050505050905090565b6000336108bb8185856113bf565b60019150505b92915050565b336000908152602081905260409020548111156108ff5760405162461bcd60e51b81526004016108f690612afb565b60405180910390fd5b8061090a333061129a565b10156109285760405162461bcd60e51b81526004016108f690612b32565b6109323082610ff2565b5080600f60008282546109459190612ba5565b909155505060405181815233907fbf477227f87d59cae1aadd5252d41575fd743438fc645b79c863df7534ec3bad906020015b60405180910390a250565b336000908152602081905260409020548111156109b25760405162461bcd60e51b81526004016108f690612afb565b806109bd333061129a565b10156109db5760405162461bcd60e51b81526004016108f690612b32565b6109e53082610ff2565b5080601060008282546109f89190612ba5565b909155505060405181815233907f39003cf59cb156ce9465072277050d79db3f8e6cc274d21964ba7cf26ca2890290602001610978565b600033610a3d8582856114e3565b610a4885858561155d565b506001949350505050565b6000610a5d611712565b905090565b33600090815260208190526040812054610a7d3330836113bf565b600191505090565b6000336108bb818585610a98838361129a565b610aa29190612ba5565b6113bf565b6000610ab1610edb565b65ffffffffffff168210610b035760405162461bcd60e51b815260206004820152601960248201527804552433230566f7465733a20667574757265206c6f6f6b757603c1b60448201526064016108f6565b6001600160a01b0383166000908152600b60205260409020610b25908361183d565b9392505050565b610b34611926565b610b3c611986565b565b610b4833826119d8565b50565b606043610b56610edb565b65ffffffffffff1614610bab5760405162461bcd60e51b815260206004820152601d60248201527f4552433230566f7465733a2062726f6b656e20636c6f636b206d6f646500000060448201526064016108f6565b5060408051808201909152601d81527f6d6f64653d626c6f636b6e756d6265722666726f6d3d64656661756c74000000602082015290565b610b4833826119e2565b610bf730826108ad565b5050565b33600090815260208190526040902054811115610c2a5760405162461bcd60e51b81526004016108f690612afb565b80610c35333061129a565b1015610c535760405162461bcd60e51b81526004016108f690612b32565b610c5d3082610ff2565b5080600e6000828254610c709190612ba5565b909155505060405181815233907fdc8a487544d3852053d11be774d27fd85f2294b19ec5d608aa38c8180e728d2790602001610978565b610caf611926565b600d55565b600d54341015610cfc5760405162461bcd60e51b8152602060048201526013602482015272125b9d985b1a5908185b5bdd5b9d081cd95b9d606a1b60448201526064016108f6565b6000610d0a6012600a612c9c565b600d54610d179034612cbe565b610d219190612ce0565b9050610d2d8282611a5b565b816001600160a01b03167f0f6798a560793a54c3bcfe86a93cde1e73087d944c0ea20544137d412139688582604051610d6891815260200190565b60405180910390a25050565b6001600160a01b0381166000908152600b60205260408120546108c190611a65565b610d9e611926565b610b3c6000611ace565b610db38233836114e3565b610bf782826119d8565b6001600160a01b0381166000908152600860205260408120546108c1565b610de3611926565b610b3c611b28565b600060608082808083610e1f7f00000000000000000000000000000000000000000000000000000000000000006006611b65565b610e4a7f00000000000000000000000000000000000000000000000000000000000000006007611b65565b60408051600080825260208201909252600f60f81b9b939a50919850469750309650945092509050565b6000610e7e610edb565b65ffffffffffff168210610ed05760405162461bcd60e51b815260206004820152601960248201527804552433230566f7465733a20667574757265206c6f6f6b757603c1b60448201526064016108f6565b6108c1600c8361183d565b6000610a5d43611c10565b60606004805461082a90612ac7565b6001600160a01b0381166000908152600b60205260408120548015610f64576001600160a01b0383166000908152600b6020526040902080546000198301908110610f4257610f42612cf7565b60009182526020909120015464010000000090046001600160e01b0316610f67565b60005b6001600160e01b03169392505050565b60003381610f85828661129a565b905083811015610fe55760405162461bcd60e51b815260206004820152602560248201527f45524332303a2064656372656173656420616c6c6f77616e63652062656c6f77604482015264207a65726f60d81b60648201526084016108f6565b610a4882868684036113bf565b6000336108bb81858561155d565b834211156110505760405162461bcd60e51b815260206004820152601d60248201527f4552433230566f7465733a207369676e6174757265206578706972656400000060448201526064016108f6565b604080517fe48329057bfd03d55e49b547132e39cffd9c1820ad7b9d4c5307691425d15adf60208201526001600160a01b0388169181019190915260608101869052608081018590526000906110ca906110c29060a00160405160208183030381529060405280519060200120611c77565b858585611ca4565b90506110d581611ccc565b86146111235760405162461bcd60e51b815260206004820152601960248201527f4552433230566f7465733a20696e76616c6964206e6f6e63650000000000000060448201526064016108f6565b61112d81886119e2565b50505050505050565b834211156111865760405162461bcd60e51b815260206004820152601d60248201527f45524332305065726d69743a206578706972656420646561646c696e6500000060448201526064016108f6565b60007f6e71edae12b1b97f4d1f60370fef10105fa2faae0126114a169c64845d6126c98888886111b58c611ccc565b6040805160208101969096526001600160a01b0394851690860152929091166060840152608083015260a082015260c0810186905260e001604051602081830303815290604052805190602001209050600061121082611c77565b9050600061122082878787611ca4565b9050896001600160a01b0316816001600160a01b0316146112835760405162461bcd60e51b815260206004820152601e60248201527f45524332305065726d69743a20696e76616c6964207369676e6174757265000060448201526064016108f6565b61128e8a8a8a6113bf565b50505050505050505050565b6001600160a01b03918216600090815260016020908152604080832093909416825291909152205490565b60408051808201909152600080825260208201526001600160a01b0383166000908152600b60205260409020805463ffffffff841690811061130957611309612cf7565b60009182526020918290206040805180820190915291015463ffffffff8116825264010000000090046001600160e01b0316918101919091529392505050565b611351611926565b6001600160a01b0381166113b65760405162461bcd60e51b815260206004820152602660248201527f4f776e61626c653a206e6577206f776e657220697320746865207a65726f206160448201526564647265737360d01b60648201526084016108f6565b610b4881611ace565b6001600160a01b0383166114215760405162461bcd60e51b8152602060048201526024808201527f45524332303a20617070726f76652066726f6d20746865207a65726f206164646044820152637265737360e01b60648201526084016108f6565b6001600160a01b0382166114825760405162461bcd60e51b815260206004820152602260248201527f45524332303a20617070726f766520746f20746865207a65726f206164647265604482015261737360f01b60648201526084016108f6565b6001600160a01b0383811660008181526001602090815260408083209487168084529482529182902085905590518481527f8c5be1e5ebec7d5bd14f71427d1e84f3dd0314c0f7b2291e5b200ac8c7c3b925910160405180910390a3505050565b60006114ef848461129a565b90506000198114611557578181101561154a5760405162461bcd60e51b815260206004820152601d60248201527f45524332303a20696e73756666696369656e7420616c6c6f77616e636500000060448201526064016108f6565b61155784848484036113bf565b50505050565b6001600160a01b0383166115c15760405162461bcd60e51b815260206004820152602560248201527f45524332303a207472616e736665722066726f6d20746865207a65726f206164604482015264647265737360d81b60648201526084016108f6565b6001600160a01b0382166116235760405162461bcd60e51b815260206004820152602360248201527f45524332303a207472616e7366657220746f20746865207a65726f206164647260448201526265737360e81b60648201526084016108f6565b61162e838383611cf4565b6001600160a01b038316600090815260208190526040902054818110156116a65760405162461bcd60e51b815260206004820152602660248201527f45524332303a207472616e7366657220616d6f756e7420657863656564732062604482015265616c616e636560d01b60648201526084016108f6565b6001600160a01b03848116600081815260208181526040808320878703905593871680835291849020805487019055925185815290927fddf252ad1be2c89b69c2b068fc378daa952ba7f163c4a11628f55a4df523b3ef910160405180910390a3611557848484611d01565b6000306001600160a01b037f00000000000000000000000000000000000000000000000000000000000000001614801561176b57507f000000000000000000000000000000000000000000000000000000000000000046145b1561179557507f000000000000000000000000000000000000000000000000000000000000000090565b610a5d604080517f8b73c3c69bb8fe3d512ecc4cf759cc79239f7b179b0ffacaa9a75d522b39400f60208201527f0000000000000000000000000000000000000000000000000000000000000000918101919091527f000000000000000000000000000000000000000000000000000000000000000060608201524660808201523060a082015260009060c00160405160208183030381529060405280519060200120905090565b81546000908181600581111561189757600061185884611d0c565b6118629085612d0d565b600088815260209020909150869082015463ffffffff16111561188757809150611895565b611892816001612ba5565b92505b505b808210156118e45760006118ab8383611df4565b600088815260209020909150869082015463ffffffff1611156118d0578091506118de565b6118db816001612ba5565b92505b50611897565b8015611910576000868152602090208101600019015464010000000090046001600160e01b0316611913565b60005b6001600160e01b03169695505050505050565b6005546001600160a01b03610100909104163314610b3c5760405162461bcd60e51b815260206004820181905260248201527f4f776e61626c653a2063616c6c6572206973206e6f7420746865206f776e657260448201526064016108f6565b61198e611e0f565b6005805460ff191690557f5db9ee0a495bf2e6ff9c91a7834c1ba4fdd244a5e8aa4e537bd38aeae4b073aa335b6040516001600160a01b03909116815260200160405180910390a1565b610bf78282611e58565b6001600160a01b038281166000818152600a60208181526040808420805485845282862054949093528787166001600160a01b03198416811790915590519190951694919391928592917f3134e8a2e6d97e929a7e54011ea5485d7d196dd5f0ba4d4ef95803e8e3fc257f9190a4611557828483611e70565b610bf78282611fad565b600063ffffffff821115611aca5760405162461bcd60e51b815260206004820152602660248201527f53616665436173743a2076616c756520646f65736e27742066697420696e203360448201526532206269747360d01b60648201526084016108f6565b5090565b600580546001600160a01b03838116610100818102610100600160a81b031985161790945560405193909204169182907f8be0079c531659141344cd1fd0a4f28419497f9722a3daafe3b4186f6b6457e090600090a35050565b611b30612037565b6005805460ff191660011790557f62e78cea01bee320cd4e420270b5ea74000d11b0c9f74754ebdbfc544b05a2586119bb3390565b606060ff8314611b7f57611b788361207d565b90506108c1565b818054611b8b90612ac7565b80601f0160208091040260200160405190810160405280929190818152602001828054611bb790612ac7565b8015611c045780601f10611bd957610100808354040283529160200191611c04565b820191906000526020600020905b815481529060010190602001808311611be757829003601f168201915b505050505090506108c1565b600065ffffffffffff821115611aca5760405162461bcd60e51b815260206004820152602660248201527f53616665436173743a2076616c756520646f65736e27742066697420696e203460448201526538206269747360d01b60648201526084016108f6565b60006108c1611c84611712565b8360405161190160f01b8152600281019290925260228201526042902090565b6000806000611cb5878787876120bc565b91509150611cc281612180565b5095945050505050565b6001600160a01b03811660009081526008602052604090208054600181018255905b50919050565b611cfc612037565b505050565b611cfc8383836122ca565b600081600003611d1e57506000919050565b60006001611d2b846122fc565b901c6001901b90506001818481611d4457611d44612ca8565b048201901c90506001818481611d5c57611d5c612ca8565b048201901c90506001818481611d7457611d74612ca8565b048201901c90506001818481611d8c57611d8c612ca8565b048201901c90506001818481611da457611da4612ca8565b048201901c90506001818481611dbc57611dbc612ca8565b048201901c90506001818481611dd457611dd4612ca8565b048201901c9050610b2581828581611dee57611dee612ca8565b04612390565b6000611e036002848418612cbe565b610b2590848416612ba5565b60055460ff16610b3c5760405162461bcd60e51b815260206004820152601460248201527314185d5cd8589b194e881b9bdd081c185d5cd95960621b60448201526064016108f6565b611e6282826123a6565b611557600c6124eb836124f7565b816001600160a01b0316836001600160a01b031614158015611e925750600081115b15611cfc576001600160a01b03831615611f20576001600160a01b0383166000908152600b602052604081208190611ecd906124eb856124f7565b91509150846001600160a01b03167fdec2bacdd2f05b59de34da9b523dff8be42e5e38e818c82fdb0bae774387a7248383604051611f15929190918252602082015260400190565b60405180910390a250505b6001600160a01b03821615611cfc576001600160a01b0382166000908152600b602052604081208190611f569061266c856124f7565b91509150836001600160a01b03167fdec2bacdd2f05b59de34da9b523dff8be42e5e38e818c82fdb0bae774387a7248383604051611f9e929190918252602082015260400190565b60405180910390a25050505050565b611fb78282612678565b6002546001600160e01b0310156120295760405162461bcd60e51b815260206004820152603060248201527f4552433230566f7465733a20746f74616c20737570706c79207269736b73206f60448201526f766572666c6f77696e6720766f74657360801b60648201526084016108f6565b611557600c61266c836124f7565b60055460ff1615610b3c5760405162461bcd60e51b815260206004820152601060248201526f14185d5cd8589b194e881c185d5cd95960821b60448201526064016108f6565b6060600061208a8361274b565b604080516020808252818301909252919250600091906020820181803683375050509182525060208101929092525090565b6000807f7fffffffffffffffffffffffffffffff5d576e7357a4501ddfe92f46681b20a08311156120f35750600090506003612177565b6040805160008082526020820180845289905260ff881692820192909252606081018690526080810185905260019060a0016020604051602081039080840390855afa158015612147573d6000803e3d6000fd5b5050604051601f1901519150506001600160a01b03811661217057600060019250925050612177565b9150600090505b94509492505050565b600081600481111561219457612194612d20565b0361219c5750565b60018160048111156121b0576121b0612d20565b036121fd5760405162461bcd60e51b815260206004820152601860248201527f45434453413a20696e76616c6964207369676e6174757265000000000000000060448201526064016108f6565b600281600481111561221157612211612d20565b0361225e5760405162461bcd60e51b815260206004820152601f60248201527f45434453413a20696e76616c6964207369676e6174757265206c656e6774680060448201526064016108f6565b600381600481111561227257612272612d20565b03610b485760405162461bcd60e51b815260206004820152602260248201527f45434453413a20696e76616c6964207369676e6174757265202773272076616c604482015261756560f01b60648201526084016108f6565b6001600160a01b038381166000908152600a6020526040808220548584168352912054611cfc92918216911683611e70565b600080608083901c1561231157608092831c92015b604083901c1561232357604092831c92015b602083901c1561233557602092831c92015b601083901c1561234757601092831c92015b600883901c1561235957600892831c92015b600483901c1561236b57600492831c92015b600283901c1561237d57600292831c92015b600183901c156108c15760010192915050565b600081831061239f5781610b25565b5090919050565b6001600160a01b0382166124065760405162461bcd60e51b815260206004820152602160248201527f45524332303a206275726e2066726f6d20746865207a65726f206164647265736044820152607360f81b60648201526084016108f6565b61241282600083611cf4565b6001600160a01b038216600090815260208190526040902054818110156124865760405162461bcd60e51b815260206004820152602260248201527f45524332303a206275726e20616d6f756e7420657863656564732062616c616e604482015261636560f01b60648201526084016108f6565b6001600160a01b0383166000818152602081815260408083208686039055600280548790039055518581529192917fddf252ad1be2c89b69c2b068fc378daa952ba7f163c4a11628f55a4df523b3ef910160405180910390a3611cfc83600084611d01565b6000610b258284612d0d565b825460009081908181156125445760008781526020902082016000190160408051808201909152905463ffffffff8116825264010000000090046001600160e01b03166020820152612559565b60408051808201909152600080825260208201525b905080602001516001600160e01b0316935061257984868863ffffffff16565b92506000821180156125a3575061258e610edb565b65ffffffffffff16816000015163ffffffff16145b156125e8576125b183612773565b60008881526020902083016000190180546001600160e01b03929092166401000000000263ffffffff909216919091179055612662565b86604051806040016040528061260c6125ff610edb565b65ffffffffffff16611a65565b63ffffffff16815260200161262086612773565b6001600160e01b0390811690915282546001810184556000938452602093849020835194909301519091166401000000000263ffffffff909316929092179101555b5050935093915050565b6000610b258284612ba5565b6001600160a01b0382166126ce5760405162461bcd60e51b815260206004820152601f60248201527f45524332303a206d696e7420746f20746865207a65726f20616464726573730060448201526064016108f6565b6126da60008383611cf4565b80600260008282546126ec9190612ba5565b90915550506001600160a01b038216600081815260208181526040808320805486019055518481527fddf252ad1be2c89b69c2b068fc378daa952ba7f163c4a11628f55a4df523b3ef910160405180910390a3610bf760008383611d01565b600060ff8216601f8111156108c157604051632cd44ac360e21b815260040160405180910390fd5b60006001600160e01b03821115611aca5760405162461bcd60e51b815260206004820152602760248201527f53616665436173743a2076616c756520646f65736e27742066697420696e20326044820152663234206269747360c81b60648201526084016108f6565b6000815180845260005b81811015612802576020818501810151868301820152016127e6565b506000602082860101526020601f19601f83011685010191505092915050565b602081526000610b2560208301846127dc565b80356001600160a01b038116811461284c57600080fd5b919050565b6000806040838503121561286457600080fd5b61286d83612835565b946020939093013593505050565b60006020828403121561288d57600080fd5b5035919050565b6000806000606084860312156128a957600080fd5b6128b284612835565b92506128c060208501612835565b9150604084013590509250925092565b6000602082840312156128e257600080fd5b610b2582612835565b60ff60f81b881681526000602060e08184015261290b60e084018a6127dc565b838103604085015261291d818a6127dc565b606085018990526001600160a01b038816608086015260a0850187905284810360c0860152855180825283870192509083019060005b8181101561296f57835183529284019291840191600101612953565b50909c9b505050505050505050505050565b803560ff8116811461284c57600080fd5b60008060008060008060c087890312156129ab57600080fd5b6129b487612835565b955060208701359450604087013593506129d060608801612981565b92506080870135915060a087013590509295509295509295565b600080600080600080600060e0888a031215612a0557600080fd5b612a0e88612835565b9650612a1c60208901612835565b95506040880135945060608801359350612a3860808901612981565b925060a0880135915060c0880135905092959891949750929550565b60008060408385031215612a6757600080fd5b612a7083612835565b9150612a7e60208401612835565b90509250929050565b60008060408385031215612a9a57600080fd5b612aa383612835565b9150602083013563ffffffff81168114612abc57600080fd5b809150509250929050565b600181811c90821680612adb57607f821691505b602082108103611cee57634e487b7160e01b600052602260045260246000fd5b60208082526019908201527f4e6f7420656e6f75676820746f6b656e7320746f20766f746500000000000000604082015260600190565b6020808252603a908201527f436f6e7472616374206973206e6f7420617070726f76656420746f207472616e60408201527f73666572207468697320616d6f756e74206f6620746f6b656e73000000000000606082015260800190565b634e487b7160e01b600052601160045260246000fd5b808201808211156108c1576108c1612b8f565b600181815b80851115612bf3578160001904821115612bd957612bd9612b8f565b80851615612be657918102915b93841c9390800290612bbd565b509250929050565b600082612c0a575060016108c1565b81612c17575060006108c1565b8160018114612c2d5760028114612c3757612c53565b60019150506108c1565b60ff841115612c4857612c48612b8f565b50506001821b6108c1565b5060208310610133831016604e8410600b8410161715612c76575081810a6108c1565b612c808383612bb8565b8060001904821115612c9457612c94612b8f565b029392505050565b6000610b258383612bfb565b634e487b7160e01b600052601260045260246000fd5b600082612cdb57634e487b7160e01b600052601260045260246000fd5b500490565b80820281158282048414176108c1576108c1612b8f565b634e487b7160e01b600052603260045260246000fd5b818103818111156108c1576108c1612b8f565b634e487b7160e01b600052602160045260246000fdfea26469706673582212207597b2961a8ebd8388ee68bf4c06e0a4c4af18264d72992d7e54bac6d40de31464736f6c63430008130033",
  "immutableReferences": {
    "3468": [
      {
        "length": 32,
        "start": 6003
      }
    ],
    "3470": [
      {
        "length": 32,
        "start": 5961
      }
    ],
    "3472": [
      {
        "length": 32,
        "start": 5919
      }
    ],
    "3474": [
      {
        "length": 32,
        "start": 6084
      }
    ],
    "3476": [
      {
        "length": 32,
        "start": 6124
      }
    ],
    "3479": [
      {
        "length": 32,
        "start": 3577
      }
    ],
    "3482": [
      {
        "length": 32,
        "start": 3620
      }
    ]
  },
  "source": "// SPDX-License-Identifier: MIT\npragma solidity ^0.8.9;\n\nimport \"../node_modules/@openzeppelin/contracts/token/ERC20/ERC20.sol\";\nimport \"../node_modules/@openzeppelin/contracts/token/ERC20/extensions/ERC20Burnable.sol\";\nimport \"../node_modules/@openzeppelin/contracts/security/Pausable.sol\";\nimport \"../node_modules/@openzeppelin/contracts/access/Ownable.sol\";\nimport \"../node_modules/@openzeppelin/contracts/token/ERC20/extensions/draft-ERC20Permit.sol\";\nimport \"../node_modules/@openzeppelin/contracts/token/ERC20/extensions/ERC20Votes.sol\";\n\ncontract MyToken is ERC20, ERC20Burnable, Pausable, Ownable, ERC20Permit, ERC20Votes {\n    uint256 public tokenPrice; // This value denotes 1 ETH = 10000 Tokens\n\n    uint256 public totalYesVotes = 0;\n    uint256 public totalNoVotes = 0;\n    uint256 public totalAbstainVotes = 0;\n\n    event Mint(address indexed to, uint256 amount);\n    event YesVote(address indexed voter, uint256 power);\n    event NoVote(address indexed voter, uint256 power);\n    event AbstainVote(address indexed voter, uint256 power);\n\n    constructor() ERC20(\"testGOV\", \"GOV\") ERC20Permit(\"testGOV\") {}\n\n    function approveContract(uint256 amount) public {\n        approve(address(this), amount);\n    }\n\n    function pause() public onlyOwner {\n        _pause();\n    }\n\n    function unpause() public onlyOwner {\n        _unpause();\n    }\n    function setTokenPrice(uint256 _tokenPrice) public onlyOwner {\n        tokenPrice = _tokenPrice;\n    }\n    function decimals() public view virtual override returns (uint8) {\n        return 18;\n    }\n\n    function approveAll() public returns (bool) { //give the right to the contract to spend all the tokens of the user\n        uint256 allowance = balanceOf(msg.sender);\n        _approve(msg.sender, address(this), allowance);\n        return true;\n    }\n\n\n    function mint(address to) public payable {\n        require(msg.value >= tokenPrice,\"Invalid amount sent\");\n        uint256 amountToMint = (msg.value / tokenPrice)*(10**uint256(decimals())); // 1 ETH = 10000 Tokens\n        _mint(to, amountToMint);\n\n        emit Mint(to, amountToMint);\n    }\n\n    function voteYes(uint256 amount) public {\n        require(amount <= balanceOf(msg.sender), \"Not enough tokens to vote\");\n        require(allowance(msg.sender, address(this)) >= amount, \"Contract is not approved to transfer this amount of tokens\");\n        transfer(address(this), amount);\n\n        totalYesVotes += amount;  // Updating the total Yes Votes\n\n        emit YesVote(msg.sender, amount);\n    }\n\n    function voteNo(uint256 amount) public {\n        require(amount <= balanceOf(msg.sender), \"Not enough tokens to vote\");\n        require(allowance(msg.sender, address(this)) >= amount, \"Contract is not approved to transfer this amount of tokens\");\n        transfer(address(this), amount);\n\n        totalNoVotes += amount;  // Updating the total No Votes\n\n        emit NoVote(msg.sender, amount);\n    }\n\n    function voteAbstain(uint256 amount) public {\n        require(amount <= balanceOf(msg.sender), \"Not enough tokens to vote\");\n        require(allowance(msg.sender, address(this)) >= amount, \"Contract is not approved to transfer this amount of tokens\");\n        transfer(address(this), amount);\n\n        totalAbstainVotes += amount;  // Updating the total Abstain Votes\n\n        emit AbstainVote(msg.sender, amount);\n    }\n\n    function _beforeTokenTransfer(address from, address to, uint256 amount)\n        internal\n        whenNotPaused\n        override\n    {\n        super._beforeTokenTransfer(from, to, amount);\n    }\n\n    function _afterTokenTransfer(address from, address to, uint256 amount)\n        internal\n        override(ERC20, ERC20Votes)\n    {\n        super._afterTokenTransfer(from, to, amount);\n    }\n\n    function _mint(address to, uint256 amount)\n        internal\n        override(ERC20, ERC20Votes)\n    {\n        super._mint(to, amount);\n    }\n\n    function _burn(address account, uint256 amount)\n        internal\n        override(ERC20, ERC20Votes)\n    {\n        super._burn(account, amount);\n    }\n}\n",
  "sourcePath": "/root/Thesis/polygon-backend/code/contracts/token.sol",
  "compiler": {
    "name": "solc",
    "version": "0.8.19+commit.7dd6d404.Emscripten.clang"
  },
  "schemaVersion": "3.4.14",
  "updatedAt": "2023-08-06T11:27:26.079Z",
  "networkType": "ethereum",
  "devdoc": {
    "events": {
      "Approval(address,address,uint256)": {
        "details": "Emitted when the allowance of a `spender` for an `owner` is set by a call to {approve}. `value` is the new allowance."
      },
      "DelegateChanged(address,address,address)": {
        "details": "Emitted when an account changes their delegate."
      },
      "DelegateVotesChanged(address,uint256,uint256)": {
        "details": "Emitted when a token transfer or delegate change results in changes to a delegate's number of votes."
      },
      "EIP712DomainChanged()": {
        "details": "MAY be emitted to signal that the domain could have changed."
      },
      "Paused(address)": {
        "details": "Emitted when the pause is triggered by `account`."
      },
      "Transfer(address,address,uint256)": {
        "details": "Emitted when `value` tokens are moved from one account (`from`) to another (`to`). Note that `value` may be zero."
      },
      "Unpaused(address)": {
        "details": "Emitted when the pause is lifted by `account`."
      }
    },
    "kind": "dev",
    "methods": {
      "CLOCK_MODE()": {
        "details": "Description of the clock"
      },
      "DOMAIN_SEPARATOR()": {
        "details": "See {IERC20Permit-DOMAIN_SEPARATOR}."
      },
      "allowance(address,address)": {
        "details": "See {IERC20-allowance}."
      },
      "approve(address,uint256)": {
        "details": "See {IERC20-approve}. NOTE: If `amount` is the maximum `uint256`, the allowance is not updated on `transferFrom`. This is semantically equivalent to an infinite approval. Requirements: - `spender` cannot be the zero address."
      },
      "balanceOf(address)": {
        "details": "See {IERC20-balanceOf}."
      },
      "burn(uint256)": {
        "details": "Destroys `amount` tokens from the caller. See {ERC20-_burn}."
      },
      "burnFrom(address,uint256)": {
        "details": "Destroys `amount` tokens from `account`, deducting from the caller's allowance. See {ERC20-_burn} and {ERC20-allowance}. Requirements: - the caller must have allowance for ``accounts``'s tokens of at least `amount`."
      },
      "checkpoints(address,uint32)": {
        "details": "Get the `pos`-th checkpoint for `account`."
      },
      "clock()": {
        "details": "Clock used for flagging checkpoints. Can be overridden to implement timestamp based checkpoints (and voting)."
      },
      "decimals()": {
        "details": "Returns the number of decimals used to get its user representation. For example, if `decimals` equals `2`, a balance of `505` tokens should be displayed to a user as `5.05` (`505 / 10 ** 2`). Tokens usually opt for a value of 18, imitating the relationship between Ether and Wei. This is the default value returned by this function, unless it's overridden. NOTE: This information is only used for _display_ purposes: it in no way affects any of the arithmetic of the contract, including {IERC20-balanceOf} and {IERC20-transfer}."
      },
      "decreaseAllowance(address,uint256)": {
        "details": "Atomically decreases the allowance granted to `spender` by the caller. This is an alternative to {approve} that can be used as a mitigation for problems described in {IERC20-approve}. Emits an {Approval} event indicating the updated allowance. Requirements: - `spender` cannot be the zero address. - `spender` must have allowance for the caller of at least `subtractedValue`."
      },
      "delegate(address)": {
        "details": "Delegate votes from the sender to `delegatee`."
      },
      "delegateBySig(address,uint256,uint256,uint8,bytes32,bytes32)": {
        "details": "Delegates votes from signer to `delegatee`"
      },
      "delegates(address)": {
        "details": "Get the address `account` is currently delegating to."
      },
      "eip712Domain()": {
        "details": "See {EIP-5267}. _Available since v4.9._"
      },
      "getPastTotalSupply(uint256)": {
        "details": "Retrieve the `totalSupply` at the end of `timepoint`. Note, this value is the sum of all balances. It is NOT the sum of all the delegated votes! Requirements: - `timepoint` must be in the past"
      },
      "getPastVotes(address,uint256)": {
        "details": "Retrieve the number of votes for `account` at the end of `timepoint`. Requirements: - `timepoint` must be in the past"
      },
      "getVotes(address)": {
        "details": "Gets the current votes balance for `account`"
      },
      "increaseAllowance(address,uint256)": {
        "details": "Atomically increases the allowance granted to `spender` by the caller. This is an alternative to {approve} that can be used as a mitigation for problems described in {IERC20-approve}. Emits an {Approval} event indicating the updated allowance. Requirements: - `spender` cannot be the zero address."
      },
      "name()": {
        "details": "Returns the name of the token."
      },
      "nonces(address)": {
        "details": "See {IERC20Permit-nonces}."
      },
      "numCheckpoints(address)": {
        "details": "Get number of checkpoints for `account`."
      },
      "owner()": {
        "details": "Returns the address of the current owner."
      },
      "paused()": {
        "details": "Returns true if the contract is paused, and false otherwise."
      },
      "permit(address,address,uint256,uint256,uint8,bytes32,bytes32)": {
        "details": "See {IERC20Permit-permit}."
      },
      "renounceOwnership()": {
        "details": "Leaves the contract without owner. It will not be possible to call `onlyOwner` functions. Can only be called by the current owner. NOTE: Renouncing ownership will leave the contract without an owner, thereby disabling any functionality that is only available to the owner."
      },
      "symbol()": {
        "details": "Returns the symbol of the token, usually a shorter version of the name."
      },
      "totalSupply()": {
        "details": "See {IERC20-totalSupply}."
      },
      "transfer(address,uint256)": {
        "details": "See {IERC20-transfer}. Requirements: - `to` cannot be the zero address. - the caller must have a balance of at least `amount`."
      },
      "transferFrom(address,address,uint256)": {
        "details": "See {IERC20-transferFrom}. Emits an {Approval} event indicating the updated allowance. This is not required by the EIP. See the note at the beginning of {ERC20}. NOTE: Does not update the allowance if the current allowance is the maximum `uint256`. Requirements: - `from` and `to` cannot be the zero address. - `from` must have a balance of at least `amount`. - the caller must have allowance for ``from``'s tokens of at least `amount`."
      },
      "transferOwnership(address)": {
        "details": "Transfers ownership of the contract to a new account (`newOwner`). Can only be called by the current owner."
      }
    },
    "version": 1
  },
  "userdoc": {
    "kind": "user",
    "methods": {},
    "version": 1
  }
}