{
  "contractName": "MyToken",
  "abi": [
    {
      "inputs": [],
      "stateMutability": "nonpayable",
      "type": "constructor"
    },
    {
      "inputs": [],
      "name": "InvalidShortString",
      "type": "error"
    },
    {
      "inputs": [
        {
          "internalType": "string",
          "name": "str",
          "type": "string"
        }
      ],
      "name": "StringTooLong",
      "type": "error"
    },
    {
      "anonymous": false,
      "inputs": [
        {
          "indexed": true,
          "internalType": "address",
          "name": "voter",
          "type": "address"
        },
        {
          "indexed": false,
          "internalType": "uint256",
          "name": "power",
          "type": "uint256"
        }
      ],
      "name": "AbstainVote",
      "type": "event"
    },
    {
      "anonymous": false,
      "inputs": [
        {
          "indexed": true,
          "internalType": "address",
          "name": "owner",
          "type": "address"
        },
        {
          "indexed": true,
          "internalType": "address",
          "name": "spender",
          "type": "address"
        },
        {
          "indexed": false,
          "internalType": "uint256",
          "name": "value",
          "type": "uint256"
        }
      ],
      "name": "Approval",
      "type": "event"
    },
    {
      "anonymous": false,
      "inputs": [
        {
          "indexed": true,
          "internalType": "address",
          "name": "delegator",
          "type": "address"
        },
        {
          "indexed": true,
          "internalType": "address",
          "name": "fromDelegate",
          "type": "address"
        },
        {
          "indexed": true,
          "internalType": "address",
          "name": "toDelegate",
          "type": "address"
        }
      ],
      "name": "DelegateChanged",
      "type": "event"
    },
    {
      "anonymous": false,
      "inputs": [
        {
          "indexed": true,
          "internalType": "address",
          "name": "delegate",
          "type": "address"
        },
        {
          "indexed": false,
          "internalType": "uint256",
          "name": "previousBalance",
          "type": "uint256"
        },
        {
          "indexed": false,
          "internalType": "uint256",
          "name": "newBalance",
          "type": "uint256"
        }
      ],
      "name": "DelegateVotesChanged",
      "type": "event"
    },
    {
      "anonymous": false,
      "inputs": [],
      "name": "EIP712DomainChanged",
      "type": "event"
    },
    {
      "anonymous": false,
      "inputs": [
        {
          "indexed": true,
          "internalType": "address",
          "name": "to",
          "type": "address"
        },
        {
          "indexed": false,
          "internalType": "uint256",
          "name": "amount",
          "type": "uint256"
        }
      ],
      "name": "Mint",
      "type": "event"
    },
    {
      "anonymous": false,
      "inputs": [
        {
          "indexed": true,
          "internalType": "address",
          "name": "voter",
          "type": "address"
        },
        {
          "indexed": false,
          "internalType": "uint256",
          "name": "power",
          "type": "uint256"
        }
      ],
      "name": "NoVote",
      "type": "event"
    },
    {
      "anonymous": false,
      "inputs": [
        {
          "indexed": true,
          "internalType": "address",
          "name": "previousOwner",
          "type": "address"
        },
        {
          "indexed": true,
          "internalType": "address",
          "name": "newOwner",
          "type": "address"
        }
      ],
      "name": "OwnershipTransferred",
      "type": "event"
    },
    {
      "anonymous": false,
      "inputs": [
        {
          "indexed": false,
          "internalType": "address",
          "name": "account",
          "type": "address"
        }
      ],
      "name": "Paused",
      "type": "event"
    },
    {
      "anonymous": false,
      "inputs": [
        {
          "indexed": true,
          "internalType": "address",
          "name": "from",
          "type": "address"
        },
        {
          "indexed": true,
          "internalType": "address",
          "name": "to",
          "type": "address"
        },
        {
          "indexed": false,
          "internalType": "uint256",
          "name": "value",
          "type": "uint256"
        }
      ],
      "name": "Transfer",
      "type": "event"
    },
    {
      "anonymous": false,
      "inputs": [
        {
          "indexed": false,
          "internalType": "address",
          "name": "account",
          "type": "address"
        }
      ],
      "name": "Unpaused",
      "type": "event"
    },
    {
      "anonymous": false,
      "inputs": [
        {
          "indexed": true,
          "internalType": "address",
          "name": "voter",
          "type": "address"
        },
        {
          "indexed": false,
          "internalType": "uint256",
          "name": "power",
          "type": "uint256"
        }
      ],
      "name": "YesVote",
      "type": "event"
    },
    {
      "inputs": [],
      "name": "CLOCK_MODE",
      "outputs": [
        {
          "internalType": "string",
          "name": "",
          "type": "string"
        }
      ],
      "stateMutability": "view",
      "type": "function",
      "constant": true
    },
    {
      "inputs": [],
      "name": "DOMAIN_SEPARATOR",
      "outputs": [
        {
          "internalType": "bytes32",
          "name": "",
          "type": "bytes32"
        }
      ],
      "stateMutability": "view",
      "type": "function",
      "constant": true
    },
    {
      "inputs": [
        {
          "internalType": "address",
          "name": "owner",
          "type": "address"
        },
        {
          "internalType": "address",
          "name": "spender",
          "type": "address"
        }
      ],
      "name": "allowance",
      "outputs": [
        {
          "internalType": "uint256",
          "name": "",
          "type": "uint256"
        }
      ],
      "stateMutability": "view",
      "type": "function",
      "constant": true
    },
    {
      "inputs": [
        {
          "internalType": "address",
          "name": "spender",
          "type": "address"
        },
        {
          "internalType": "uint256",
          "name": "amount",
          "type": "uint256"
        }
      ],
      "name": "approve",
      "outputs": [
        {
          "internalType": "bool",
          "name": "",
          "type": "bool"
        }
      ],
      "stateMutability": "nonpayable",
      "type": "function"
    },
    {
      "inputs": [
        {
          "internalType": "address",
          "name": "account",
          "type": "address"
        }
      ],
      "name": "balanceOf",
      "outputs": [
        {
          "internalType": "uint256",
          "name": "",
          "type": "uint256"
        }
      ],
      "stateMutability": "view",
      "type": "function",
      "constant": true
    },
    {
      "inputs": [
        {
          "internalType": "uint256",
          "name": "amount",
          "type": "uint256"
        }
      ],
      "name": "burn",
      "outputs": [],
      "stateMutability": "nonpayable",
      "type": "function"
    },
    {
      "inputs": [
        {
          "internalType": "address",
          "name": "account",
          "type": "address"
        },
        {
          "internalType": "uint256",
          "name": "amount",
          "type": "uint256"
        }
      ],
      "name": "burnFrom",
      "outputs": [],
      "stateMutability": "nonpayable",
      "type": "function"
    },
    {
      "inputs": [
        {
          "internalType": "address",
          "name": "account",
          "type": "address"
        },
        {
          "internalType": "uint32",
          "name": "pos",
          "type": "uint32"
        }
      ],
      "name": "checkpoints",
      "outputs": [
        {
          "components": [
            {
              "internalType": "uint32",
              "name": "fromBlock",
              "type": "uint32"
            },
            {
              "internalType": "uint224",
              "name": "votes",
              "type": "uint224"
            }
          ],
          "internalType": "struct ERC20Votes.Checkpoint",
          "name": "",
          "type": "tuple"
        }
      ],
      "stateMutability": "view",
      "type": "function",
      "constant": true
    },
    {
      "inputs": [],
      "name": "clock",
      "outputs": [
        {
          "internalType": "uint48",
          "name": "",
          "type": "uint48"
        }
      ],
      "stateMutability": "view",
      "type": "function",
      "constant": true
    },
    {
      "inputs": [
        {
          "internalType": "address",
          "name": "spender",
          "type": "address"
        },
        {
          "internalType": "uint256",
          "name": "subtractedValue",
          "type": "uint256"
        }
      ],
      "name": "decreaseAllowance",
      "outputs": [
        {
          "internalType": "bool",
          "name": "",
          "type": "bool"
        }
      ],
      "stateMutability": "nonpayable",
      "type": "function"
    },
    {
      "inputs": [
        {
          "internalType": "address",
          "name": "delegatee",
          "type": "address"
        }
      ],
      "name": "delegate",
      "outputs": [],
      "stateMutability": "nonpayable",
      "type": "function"
    },
    {
      "inputs": [
        {
          "internalType": "address",
          "name": "delegatee",
          "type": "address"
        },
        {
          "internalType": "uint256",
          "name": "nonce",
          "type": "uint256"
        },
        {
          "internalType": "uint256",
          "name": "expiry",
          "type": "uint256"
        },
        {
          "internalType": "uint8",
          "name": "v",
          "type": "uint8"
        },
        {
          "internalType": "bytes32",
          "name": "r",
          "type": "bytes32"
        },
        {
          "internalType": "bytes32",
          "name": "s",
          "type": "bytes32"
        }
      ],
      "name": "delegateBySig",
      "outputs": [],
      "stateMutability": "nonpayable",
      "type": "function"
    },
    {
      "inputs": [
        {
          "internalType": "address",
          "name": "account",
          "type": "address"
        }
      ],
      "name": "delegates",
      "outputs": [
        {
          "internalType": "address",
          "name": "",
          "type": "address"
        }
      ],
      "stateMutability": "view",
      "type": "function",
      "constant": true
    },
    {
      "inputs": [],
      "name": "eip712Domain",
      "outputs": [
        {
          "internalType": "bytes1",
          "name": "fields",
          "type": "bytes1"
        },
        {
          "internalType": "string",
          "name": "name",
          "type": "string"
        },
        {
          "internalType": "string",
          "name": "version",
          "type": "string"
        },
        {
          "internalType": "uint256",
          "name": "chainId",
          "type": "uint256"
        },
        {
          "internalType": "address",
          "name": "verifyingContract",
          "type": "address"
        },
        {
          "internalType": "bytes32",
          "name": "salt",
          "type": "bytes32"
        },
        {
          "internalType": "uint256[]",
          "name": "extensions",
          "type": "uint256[]"
        }
      ],
      "stateMutability": "view",
      "type": "function",
      "constant": true
    },
    {
      "inputs": [
        {
          "internalType": "uint256",
          "name": "timepoint",
          "type": "uint256"
        }
      ],
      "name": "getPastTotalSupply",
      "outputs": [
        {
          "internalType": "uint256",
          "name": "",
          "type": "uint256"
        }
      ],
      "stateMutability": "view",
      "type": "function",
      "constant": true
    },
    {
      "inputs": [
        {
          "internalType": "address",
          "name": "account",
          "type": "address"
        },
        {
          "internalType": "uint256",
          "name": "timepoint",
          "type": "uint256"
        }
      ],
      "name": "getPastVotes",
      "outputs": [
        {
          "internalType": "uint256",
          "name": "",
          "type": "uint256"
        }
      ],
      "stateMutability": "view",
      "type": "function",
      "constant": true
    },
    {
      "inputs": [
        {
          "internalType": "address",
          "name": "account",
          "type": "address"
        }
      ],
      "name": "getVotes",
      "outputs": [
        {
          "internalType": "uint256",
          "name": "",
          "type": "uint256"
        }
      ],
      "stateMutability": "view",
      "type": "function",
      "constant": true
    },
    {
      "inputs": [
        {
          "internalType": "address",
          "name": "spender",
          "type": "address"
        },
        {
          "internalType": "uint256",
          "name": "addedValue",
          "type": "uint256"
        }
      ],
      "name": "increaseAllowance",
      "outputs": [
        {
          "internalType": "bool",
          "name": "",
          "type": "bool"
        }
      ],
      "stateMutability": "nonpayable",
      "type": "function"
    },
    {
      "inputs": [],
      "name": "name",
      "outputs": [
        {
          "internalType": "string",
          "name": "",
          "type": "string"
        }
      ],
      "stateMutability": "view",
      "type": "function",
      "constant": true
    },
    {
      "inputs": [
        {
          "internalType": "address",
          "name": "owner",
          "type": "address"
        }
      ],
      "name": "nonces",
      "outputs": [
        {
          "internalType": "uint256",
          "name": "",
          "type": "uint256"
        }
      ],
      "stateMutability": "view",
      "type": "function",
      "constant": true
    },
    {
      "inputs": [
        {
          "internalType": "address",
          "name": "account",
          "type": "address"
        }
      ],
      "name": "numCheckpoints",
      "outputs": [
        {
          "internalType": "uint32",
          "name": "",
          "type": "uint32"
        }
      ],
      "stateMutability": "view",
      "type": "function",
      "constant": true
    },
    {
      "inputs": [],
      "name": "owner",
      "outputs": [
        {
          "internalType": "address",
          "name": "",
          "type": "address"
        }
      ],
      "stateMutability": "view",
      "type": "function",
      "constant": true
    },
    {
      "inputs": [],
      "name": "paused",
      "outputs": [
        {
          "internalType": "bool",
          "name": "",
          "type": "bool"
        }
      ],
      "stateMutability": "view",
      "type": "function",
      "constant": true
    },
    {
      "inputs": [
        {
          "internalType": "address",
          "name": "owner",
          "type": "address"
        },
        {
          "internalType": "address",
          "name": "spender",
          "type": "address"
        },
        {
          "internalType": "uint256",
          "name": "value",
          "type": "uint256"
        },
        {
          "internalType": "uint256",
          "name": "deadline",
          "type": "uint256"
        },
        {
          "internalType": "uint8",
          "name": "v",
          "type": "uint8"
        },
        {
          "internalType": "bytes32",
          "name": "r",
          "type": "bytes32"
        },
        {
          "internalType": "bytes32",
          "name": "s",
          "type": "bytes32"
        }
      ],
      "name": "permit",
      "outputs": [],
      "stateMutability": "nonpayable",
      "type": "function"
    },
    {
      "inputs": [],
      "name": "renounceOwnership",
      "outputs": [],
      "stateMutability": "nonpayable",
      "type": "function"
    },
    {
      "inputs": [],
      "name": "symbol",
      "outputs": [
        {
          "internalType": "string",
          "name": "",
          "type": "string"
        }
      ],
      "stateMutability": "view",
      "type": "function",
      "constant": true
    },
    {
      "inputs": [],
      "name": "tokenPrice",
      "outputs": [
        {
          "internalType": "uint256",
          "name": "",
          "type": "uint256"
        }
      ],
      "stateMutability": "view",
      "type": "function",
      "constant": true
    },
    {
      "inputs": [],
      "name": "totalAbstainVotes",
      "outputs": [
        {
          "internalType": "uint256",
          "name": "",
          "type": "uint256"
        }
      ],
      "stateMutability": "view",
      "type": "function",
      "constant": true
    },
    {
      "inputs": [],
      "name": "totalNoVotes",
      "outputs": [
        {
          "internalType": "uint256",
          "name": "",
          "type": "uint256"
        }
      ],
      "stateMutability": "view",
      "type": "function",
      "constant": true
    },
    {
      "inputs": [],
      "name": "totalSupply",
      "outputs": [
        {
          "internalType": "uint256",
          "name": "",
          "type": "uint256"
        }
      ],
      "stateMutability": "view",
      "type": "function",
      "constant": true
    },
    {
      "inputs": [],
      "name": "totalYesVotes",
      "outputs": [
        {
          "internalType": "uint256",
          "name": "",
          "type": "uint256"
        }
      ],
      "stateMutability": "view",
      "type": "function",
      "constant": true
    },
    {
      "inputs": [
        {
          "internalType": "address",
          "name": "to",
          "type": "address"
        },
        {
          "internalType": "uint256",
          "name": "amount",
          "type": "uint256"
        }
      ],
      "name": "transfer",
      "outputs": [
        {
          "internalType": "bool",
          "name": "",
          "type": "bool"
        }
      ],
      "stateMutability": "nonpayable",
      "type": "function"
    },
    {
      "inputs": [
        {
          "internalType": "address",
          "name": "from",
          "type": "address"
        },
        {
          "internalType": "address",
          "name": "to",
          "type": "address"
        },
        {
          "internalType": "uint256",
          "name": "amount",
          "type": "uint256"
        }
      ],
      "name": "transferFrom",
      "outputs": [
        {
          "internalType": "bool",
          "name": "",
          "type": "bool"
        }
      ],
      "stateMutability": "nonpayable",
      "type": "function"
    },
    {
      "inputs": [
        {
          "internalType": "address",
          "name": "newOwner",
          "type": "address"
        }
      ],
      "name": "transferOwnership",
      "outputs": [],
      "stateMutability": "nonpayable",
      "type": "function"
    },
    {
      "inputs": [
        {
          "internalType": "uint256",
          "name": "amount",
          "type": "uint256"
        }
      ],
      "name": "approveContract",
      "outputs": [],
      "stateMutability": "nonpayable",
      "type": "function"
    },
    {
      "inputs": [],
      "name": "pause",
      "outputs": [],
      "stateMutability": "nonpayable",
      "type": "function"
    },
    {
      "inputs": [],
      "name": "unpause",
      "outputs": [],
      "stateMutability": "nonpayable",
      "type": "function"
    },
    {
      "inputs": [],
      "name": "decimals",
      "outputs": [
        {
          "internalType": "uint8",
          "name": "",
          "type": "uint8"
        }
      ],
      "stateMutability": "view",
      "type": "function",
      "constant": true
    },
    {
      "inputs": [],
      "name": "approveAll",
      "outputs": [
        {
          "internalType": "bool",
          "name": "",
          "type": "bool"
        }
      ],
      "stateMutability": "nonpayable",
      "type": "function"
    },
    {
      "inputs": [
        {
          "internalType": "address",
          "name": "to",
          "type": "address"
        }
      ],
      "name": "mint",
      "outputs": [],
      "stateMutability": "payable",
      "type": "function",
      "payable": true
    },
    {
      "inputs": [
        {
          "internalType": "uint256",
          "name": "amount",
          "type": "uint256"
        }
      ],
      "name": "voteYes",
      "outputs": [],
      "stateMutability": "nonpayable",
      "type": "function"
    },
    {
      "inputs": [
        {
          "internalType": "uint256",
          "name": "amount",
          "type": "uint256"
        }
      ],
      "name": "voteNo",
      "outputs": [],
      "stateMutability": "nonpayable",
      "type": "function"
    },
    {
      "inputs": [
        {
          "internalType": "uint256",
          "name": "amount",
          "type": "uint256"
        }
      ],
      "name": "voteAbstain",
      "outputs": [],
      "stateMutability": "nonpayable",
      "type": "function"
    }
  ],
  "bytecode": "0x610160604052655af3107a4000600d556000600e556000600f5560006010553480156200002b57600080fd5b50604051806040016040528060078152602001663a32b9ba23a7ab60c91b81525080604051806040016040528060018152602001603160f81b815250604051806040016040528060078152602001663a32b9ba23a7ab60c91b8152506040518060400160405280600381526020016223a7ab60e91b8152508160039081620000b491906200031b565b506004620000c382826200031b565b50506005805460ff1916905550620000db3362000197565b620000e8826006620001f1565b61012052620000f9816007620001f1565b61014052815160208084019190912060e052815190820120610100524660a0526200018760e05161010051604080517f8b73c3c69bb8fe3d512ecc4cf759cc79239f7b179b0ffacaa9a75d522b39400f60208201529081019290925260608201524660808201523060a082015260009060c00160405160208183030381529060405280519060200120905090565b60805250503060c052506200045c565b600580546001600160a01b03838116610100818102610100600160a81b031985161790945560405193909204169182907f8be0079c531659141344cd1fd0a4f28419497f9722a3daafe3b4186f6b6457e090600090a35050565b6000602083511015620002115762000209836200022a565b905062000224565b816200021e84826200031b565b5060ff90505b92915050565b600080829050601f8151111562000261578260405163305a27a960e01b8152600401620002589190620003e7565b60405180910390fd5b80516200026e8262000437565b179392505050565b634e487b7160e01b600052604160045260246000fd5b600181811c90821680620002a157607f821691505b602082108103620002c257634e487b7160e01b600052602260045260246000fd5b50919050565b601f8211156200031657600081815260208120601f850160051c81016020861015620002f15750805b601f850160051c820191505b818110156200031257828155600101620002fd565b5050505b505050565b81516001600160401b0381111562000337576200033762000276565b6200034f816200034884546200028c565b84620002c8565b602080601f8311600181146200038757600084156200036e5750858301515b600019600386901b1c1916600185901b17855562000312565b600085815260208120601f198616915b82811015620003b85788860151825594840194600190910190840162000397565b5085821015620003d75787850151600019600388901b60f8161c191681555b5050505050600190811b01905550565b600060208083528351808285015260005b818110156200041657858101830151858201604001528201620003f8565b506000604082860101526040601f19601f8301168501019250505092915050565b80516020808301519190811015620002c25760001960209190910360031b1b16919050565b60805160a05160c05160e051610100516101205161014051612d38620004b76000396000610df001526000610dc5015260006117b801526000611790015260006116eb015260006117150152600061173f0152612d386000f3fe60806040526004361061025c5760003560e01c80636a1cf721116101445780638e539e8c116100b6578063a9059cbb1161007a578063a9059cbb14610706578063c3cda52014610726578063d505accf14610746578063dd62ed3e14610766578063f1127ed814610786578063f2fde38b146107d057600080fd5b80638e539e8c1461066557806391ddadf41461068557806395d89b41146106b15780639ab24eb0146106c6578063a457c2d7146106e657600080fd5b806379cc67901161010857806379cc6790146105af5780637ecebe00146105cf5780637ff9b596146105ef5780638456cb591461060557806384b0196e1461061a5780638da5cb5b1461064257600080fd5b80636a1cf721146104fc5780636a6278421461051c5780636fcfff451461052f57806370a0823114610564578063715018a61461059a57600080fd5b8063380d0c08116101dd57806342966c68116101a157806342966c681461041e5780634bf5d7e91461043e578063587cde1e146104535780635c19a95c146104a45780635c975abb146104c457806362c35c01146104dc57600080fd5b8063380d0c081461039e57806339509351146103b35780633a46b1a8146103d35780633f4ba83a146103f357806341cba4451461040857600080fd5b80631a6f7be5116102245780631a6f7be51461030b5780631cbc1ef61461032d57806323b872dd1461034d578063313ce5671461036d5780633644e5151461038957600080fd5b806306fdde0314610261578063095ea7b31461028c5780631301c8b1146102bc578063134f0584146102e057806318160ddd146102f6575b600080fd5b34801561026d57600080fd5b506102766107f0565b60405161028391906127ee565b60405180910390f35b34801561029857600080fd5b506102ac6102a736600461281d565b610882565b6040519015158152602001610283565b3480156102c857600080fd5b506102d2600e5481565b604051908152602001610283565b3480156102ec57600080fd5b506102d2600f5481565b34801561030257600080fd5b506002546102d2565b34801561031757600080fd5b5061032b610326366004612847565b61089c565b005b34801561033957600080fd5b5061032b610348366004612847565b610958565b34801561035957600080fd5b506102ac610368366004612860565b610a04565b34801561037957600080fd5b5060405160128152602001610283565b34801561039557600080fd5b506102d2610a28565b3480156103aa57600080fd5b506102ac610a37565b3480156103bf57600080fd5b506102ac6103ce36600461281d565b610a5a565b3480156103df57600080fd5b506102d26103ee36600461281d565b610a7c565b3480156103ff57600080fd5b5061032b610b01565b34801561041457600080fd5b506102d260105481565b34801561042a57600080fd5b5061032b610439366004612847565b610b13565b34801561044a57600080fd5b50610276610b20565b34801561045f57600080fd5b5061048c61046e36600461289c565b6001600160a01b039081166000908152600a60205260409020541690565b6040516001600160a01b039091168152602001610283565b3480156104b057600080fd5b5061032b6104bf36600461289c565b610bb8565b3480156104d057600080fd5b5060055460ff166102ac565b3480156104e857600080fd5b5061032b6104f7366004612847565b610bc2565b34801561050857600080fd5b5061032b610517366004612847565b610bd0565b61032b61052a36600461289c565b610c7c565b34801561053b57600080fd5b5061054f61054a36600461289c565b610d40565b60405163ffffffff9091168152602001610283565b34801561057057600080fd5b506102d261057f36600461289c565b6001600160a01b031660009081526020819052604090205490565b3480156105a657600080fd5b5061032b610d62565b3480156105bb57600080fd5b5061032b6105ca36600461281d565b610d74565b3480156105db57600080fd5b506102d26105ea36600461289c565b610d89565b3480156105fb57600080fd5b506102d2600d5481565b34801561061157600080fd5b5061032b610da7565b34801561062657600080fd5b5061062f610db7565b60405161028397969594939291906128b7565b34801561064e57600080fd5b5060055461010090046001600160a01b031661048c565b34801561067157600080fd5b506102d2610680366004612847565b610e40565b34801561069157600080fd5b5061069a610ea7565b60405165ffffffffffff9091168152602001610283565b3480156106bd57600080fd5b50610276610eb2565b3480156106d257600080fd5b506102d26106e136600461289c565b610ec1565b3480156106f257600080fd5b506102ac61070136600461281d565b610f43565b34801561071257600080fd5b506102ac61072136600461281d565b610fbe565b34801561073257600080fd5b5061032b61074136600461295e565b610fcc565b34801561075257600080fd5b5061032b6107613660046129b6565b611102565b34801561077257600080fd5b506102d2610781366004612a20565b611266565b34801561079257600080fd5b506107a66107a1366004612a53565b611291565b60408051825163ffffffff1681526020928301516001600160e01b03169281019290925201610283565b3480156107dc57600080fd5b5061032b6107eb36600461289c565b611315565b6060600380546107ff90612a93565b80601f016020809104026020016040519081016040528092919081815260200182805461082b90612a93565b80156108785780601f1061084d57610100808354040283529160200191610878565b820191906000526020600020905b81548152906001019060200180831161085b57829003601f168201915b5050505050905090565b60003361089081858561138b565b60019150505b92915050565b336000908152602081905260409020548111156108d45760405162461bcd60e51b81526004016108cb90612ac7565b60405180910390fd5b806108df3330611266565b10156108fd5760405162461bcd60e51b81526004016108cb90612afe565b6109073082610fbe565b5080600f600082825461091a9190612b71565b909155505060405181815233907fbf477227f87d59cae1aadd5252d41575fd743438fc645b79c863df7534ec3bad906020015b60405180910390a250565b336000908152602081905260409020548111156109875760405162461bcd60e51b81526004016108cb90612ac7565b806109923330611266565b10156109b05760405162461bcd60e51b81526004016108cb90612afe565b6109ba3082610fbe565b5080601060008282546109cd9190612b71565b909155505060405181815233907f39003cf59cb156ce9465072277050d79db3f8e6cc274d21964ba7cf26ca289029060200161094d565b600033610a128582856114af565b610a1d858585611529565b506001949350505050565b6000610a326116de565b905090565b33600090815260208190526040812054610a5233308361138b565b600191505090565b600033610890818585610a6d8383611266565b610a779190612b71565b61138b565b6000610a86610ea7565b65ffffffffffff168210610ad85760405162461bcd60e51b815260206004820152601960248201527804552433230566f7465733a20667574757265206c6f6f6b757603c1b60448201526064016108cb565b6001600160a01b0383166000908152600b60205260409020610afa9083611809565b9392505050565b610b096118f2565b610b11611952565b565b610b1d33826119a4565b50565b606043610b2b610ea7565b65ffffffffffff1614610b805760405162461bcd60e51b815260206004820152601d60248201527f4552433230566f7465733a2062726f6b656e20636c6f636b206d6f646500000060448201526064016108cb565b5060408051808201909152601d81527f6d6f64653d626c6f636b6e756d6265722666726f6d3d64656661756c74000000602082015290565b610b1d33826119ae565b610bcc3082610882565b5050565b33600090815260208190526040902054811115610bff5760405162461bcd60e51b81526004016108cb90612ac7565b80610c0a3330611266565b1015610c285760405162461bcd60e51b81526004016108cb90612afe565b610c323082610fbe565b5080600e6000828254610c459190612b71565b909155505060405181815233907fdc8a487544d3852053d11be774d27fd85f2294b19ec5d608aa38c8180e728d279060200161094d565b655af3107a4000341015610cc85760405162461bcd60e51b8152602060048201526013602482015272125b9d985b1a5908185b5bdd5b9d081cd95b9d606a1b60448201526064016108cb565b6000610cd66012600a612c68565b600d54610ce39034612c8a565b610ced9190612cac565b9050610cf98282611a27565b816001600160a01b03167f0f6798a560793a54c3bcfe86a93cde1e73087d944c0ea20544137d412139688582604051610d3491815260200190565b60405180910390a25050565b6001600160a01b0381166000908152600b602052604081205461089690611a31565b610d6a6118f2565b610b116000611a9a565b610d7f8233836114af565b610bcc82826119a4565b6001600160a01b038116600090815260086020526040812054610896565b610daf6118f2565b610b11611af4565b600060608082808083610deb7f00000000000000000000000000000000000000000000000000000000000000006006611b31565b610e167f00000000000000000000000000000000000000000000000000000000000000006007611b31565b60408051600080825260208201909252600f60f81b9b939a50919850469750309650945092509050565b6000610e4a610ea7565b65ffffffffffff168210610e9c5760405162461bcd60e51b815260206004820152601960248201527804552433230566f7465733a20667574757265206c6f6f6b757603c1b60448201526064016108cb565b610896600c83611809565b6000610a3243611bdc565b6060600480546107ff90612a93565b6001600160a01b0381166000908152600b60205260408120548015610f30576001600160a01b0383166000908152600b6020526040902080546000198301908110610f0e57610f0e612cc3565b60009182526020909120015464010000000090046001600160e01b0316610f33565b60005b6001600160e01b03169392505050565b60003381610f518286611266565b905083811015610fb15760405162461bcd60e51b815260206004820152602560248201527f45524332303a2064656372656173656420616c6c6f77616e63652062656c6f77604482015264207a65726f60d81b60648201526084016108cb565b610a1d828686840361138b565b600033610890818585611529565b8342111561101c5760405162461bcd60e51b815260206004820152601d60248201527f4552433230566f7465733a207369676e6174757265206578706972656400000060448201526064016108cb565b604080517fe48329057bfd03d55e49b547132e39cffd9c1820ad7b9d4c5307691425d15adf60208201526001600160a01b0388169181019190915260608101869052608081018590526000906110969061108e9060a00160405160208183030381529060405280519060200120611c43565b858585611c70565b90506110a181611c98565b86146110ef5760405162461bcd60e51b815260206004820152601960248201527f4552433230566f7465733a20696e76616c6964206e6f6e63650000000000000060448201526064016108cb565b6110f981886119ae565b50505050505050565b834211156111525760405162461bcd60e51b815260206004820152601d60248201527f45524332305065726d69743a206578706972656420646561646c696e6500000060448201526064016108cb565b60007f6e71edae12b1b97f4d1f60370fef10105fa2faae0126114a169c64845d6126c98888886111818c611c98565b6040805160208101969096526001600160a01b0394851690860152929091166060840152608083015260a082015260c0810186905260e00160405160208183030381529060405280519060200120905060006111dc82611c43565b905060006111ec82878787611c70565b9050896001600160a01b0316816001600160a01b03161461124f5760405162461bcd60e51b815260206004820152601e60248201527f45524332305065726d69743a20696e76616c6964207369676e6174757265000060448201526064016108cb565b61125a8a8a8a61138b565b50505050505050505050565b6001600160a01b03918216600090815260016020908152604080832093909416825291909152205490565b60408051808201909152600080825260208201526001600160a01b0383166000908152600b60205260409020805463ffffffff84169081106112d5576112d5612cc3565b60009182526020918290206040805180820190915291015463ffffffff8116825264010000000090046001600160e01b0316918101919091529392505050565b61131d6118f2565b6001600160a01b0381166113825760405162461bcd60e51b815260206004820152602660248201527f4f776e61626c653a206e6577206f776e657220697320746865207a65726f206160448201526564647265737360d01b60648201526084016108cb565b610b1d81611a9a565b6001600160a01b0383166113ed5760405162461bcd60e51b8152602060048201526024808201527f45524332303a20617070726f76652066726f6d20746865207a65726f206164646044820152637265737360e01b60648201526084016108cb565b6001600160a01b03821661144e5760405162461bcd60e51b815260206004820152602260248201527f45524332303a20617070726f766520746f20746865207a65726f206164647265604482015261737360f01b60648201526084016108cb565b6001600160a01b0383811660008181526001602090815260408083209487168084529482529182902085905590518481527f8c5be1e5ebec7d5bd14f71427d1e84f3dd0314c0f7b2291e5b200ac8c7c3b925910160405180910390a3505050565b60006114bb8484611266565b9050600019811461152357818110156115165760405162461bcd60e51b815260206004820152601d60248201527f45524332303a20696e73756666696369656e7420616c6c6f77616e636500000060448201526064016108cb565b611523848484840361138b565b50505050565b6001600160a01b03831661158d5760405162461bcd60e51b815260206004820152602560248201527f45524332303a207472616e736665722066726f6d20746865207a65726f206164604482015264647265737360d81b60648201526084016108cb565b6001600160a01b0382166115ef5760405162461bcd60e51b815260206004820152602360248201527f45524332303a207472616e7366657220746f20746865207a65726f206164647260448201526265737360e81b60648201526084016108cb565b6115fa838383611cc0565b6001600160a01b038316600090815260208190526040902054818110156116725760405162461bcd60e51b815260206004820152602660248201527f45524332303a207472616e7366657220616d6f756e7420657863656564732062604482015265616c616e636560d01b60648201526084016108cb565b6001600160a01b03848116600081815260208181526040808320878703905593871680835291849020805487019055925185815290927fddf252ad1be2c89b69c2b068fc378daa952ba7f163c4a11628f55a4df523b3ef910160405180910390a3611523848484611ccd565b6000306001600160a01b037f00000000000000000000000000000000000000000000000000000000000000001614801561173757507f000000000000000000000000000000000000000000000000000000000000000046145b1561176157507f000000000000000000000000000000000000000000000000000000000000000090565b610a32604080517f8b73c3c69bb8fe3d512ecc4cf759cc79239f7b179b0ffacaa9a75d522b39400f60208201527f0000000000000000000000000000000000000000000000000000000000000000918101919091527f000000000000000000000000000000000000000000000000000000000000000060608201524660808201523060a082015260009060c00160405160208183030381529060405280519060200120905090565b81546000908181600581111561186357600061182484611cd8565b61182e9085612cd9565b600088815260209020909150869082015463ffffffff16111561185357809150611861565b61185e816001612b71565b92505b505b808210156118b05760006118778383611dc0565b600088815260209020909150869082015463ffffffff16111561189c578091506118aa565b6118a7816001612b71565b92505b50611863565b80156118dc576000868152602090208101600019015464010000000090046001600160e01b03166118df565b60005b6001600160e01b03169695505050505050565b6005546001600160a01b03610100909104163314610b115760405162461bcd60e51b815260206004820181905260248201527f4f776e61626c653a2063616c6c6572206973206e6f7420746865206f776e657260448201526064016108cb565b61195a611ddb565b6005805460ff191690557f5db9ee0a495bf2e6ff9c91a7834c1ba4fdd244a5e8aa4e537bd38aeae4b073aa335b6040516001600160a01b03909116815260200160405180910390a1565b610bcc8282611e24565b6001600160a01b038281166000818152600a60208181526040808420805485845282862054949093528787166001600160a01b03198416811790915590519190951694919391928592917f3134e8a2e6d97e929a7e54011ea5485d7d196dd5f0ba4d4ef95803e8e3fc257f9190a4611523828483611e3c565b610bcc8282611f79565b600063ffffffff821115611a965760405162461bcd60e51b815260206004820152602660248201527f53616665436173743a2076616c756520646f65736e27742066697420696e203360448201526532206269747360d01b60648201526084016108cb565b5090565b600580546001600160a01b03838116610100818102610100600160a81b031985161790945560405193909204169182907f8be0079c531659141344cd1fd0a4f28419497f9722a3daafe3b4186f6b6457e090600090a35050565b611afc612003565b6005805460ff191660011790557f62e78cea01bee320cd4e420270b5ea74000d11b0c9f74754ebdbfc544b05a2586119873390565b606060ff8314611b4b57611b4483612049565b9050610896565b818054611b5790612a93565b80601f0160208091040260200160405190810160405280929190818152602001828054611b8390612a93565b8015611bd05780601f10611ba557610100808354040283529160200191611bd0565b820191906000526020600020905b815481529060010190602001808311611bb357829003601f168201915b50505050509050610896565b600065ffffffffffff821115611a965760405162461bcd60e51b815260206004820152602660248201527f53616665436173743a2076616c756520646f65736e27742066697420696e203460448201526538206269747360d01b60648201526084016108cb565b6000610896611c506116de565b8360405161190160f01b8152600281019290925260228201526042902090565b6000806000611c8187878787612088565b91509150611c8e8161214c565b5095945050505050565b6001600160a01b03811660009081526008602052604090208054600181018255905b50919050565b611cc8612003565b505050565b611cc8838383612296565b600081600003611cea57506000919050565b60006001611cf7846122c8565b901c6001901b90506001818481611d1057611d10612c74565b048201901c90506001818481611d2857611d28612c74565b048201901c90506001818481611d4057611d40612c74565b048201901c90506001818481611d5857611d58612c74565b048201901c90506001818481611d7057611d70612c74565b048201901c90506001818481611d8857611d88612c74565b048201901c90506001818481611da057611da0612c74565b048201901c9050610afa81828581611dba57611dba612c74565b0461235c565b6000611dcf6002848418612c8a565b610afa90848416612b71565b60055460ff16610b115760405162461bcd60e51b815260206004820152601460248201527314185d5cd8589b194e881b9bdd081c185d5cd95960621b60448201526064016108cb565b611e2e8282612372565b611523600c6124b7836124c3565b816001600160a01b0316836001600160a01b031614158015611e5e5750600081115b15611cc8576001600160a01b03831615611eec576001600160a01b0383166000908152600b602052604081208190611e99906124b7856124c3565b91509150846001600160a01b03167fdec2bacdd2f05b59de34da9b523dff8be42e5e38e818c82fdb0bae774387a7248383604051611ee1929190918252602082015260400190565b60405180910390a250505b6001600160a01b03821615611cc8576001600160a01b0382166000908152600b602052604081208190611f2290612638856124c3565b91509150836001600160a01b03167fdec2bacdd2f05b59de34da9b523dff8be42e5e38e818c82fdb0bae774387a7248383604051611f6a929190918252602082015260400190565b60405180910390a25050505050565b611f838282612644565b6002546001600160e01b031015611ff55760405162461bcd60e51b815260206004820152603060248201527f4552433230566f7465733a20746f74616c20737570706c79207269736b73206f60448201526f766572666c6f77696e6720766f74657360801b60648201526084016108cb565b611523600c612638836124c3565b60055460ff1615610b115760405162461bcd60e51b815260206004820152601060248201526f14185d5cd8589b194e881c185d5cd95960821b60448201526064016108cb565b6060600061205683612717565b604080516020808252818301909252919250600091906020820181803683375050509182525060208101929092525090565b6000807f7fffffffffffffffffffffffffffffff5d576e7357a4501ddfe92f46681b20a08311156120bf5750600090506003612143565b6040805160008082526020820180845289905260ff881692820192909252606081018690526080810185905260019060a0016020604051602081039080840390855afa158015612113573d6000803e3d6000fd5b5050604051601f1901519150506001600160a01b03811661213c57600060019250925050612143565b9150600090505b94509492505050565b600081600481111561216057612160612cec565b036121685750565b600181600481111561217c5761217c612cec565b036121c95760405162461bcd60e51b815260206004820152601860248201527f45434453413a20696e76616c6964207369676e6174757265000000000000000060448201526064016108cb565b60028160048111156121dd576121dd612cec565b0361222a5760405162461bcd60e51b815260206004820152601f60248201527f45434453413a20696e76616c6964207369676e6174757265206c656e6774680060448201526064016108cb565b600381600481111561223e5761223e612cec565b03610b1d5760405162461bcd60e51b815260206004820152602260248201527f45434453413a20696e76616c6964207369676e6174757265202773272076616c604482015261756560f01b60648201526084016108cb565b6001600160a01b038381166000908152600a6020526040808220548584168352912054611cc892918216911683611e3c565b600080608083901c156122dd57608092831c92015b604083901c156122ef57604092831c92015b602083901c1561230157602092831c92015b601083901c1561231357601092831c92015b600883901c1561232557600892831c92015b600483901c1561233757600492831c92015b600283901c1561234957600292831c92015b600183901c156108965760010192915050565b600081831061236b5781610afa565b5090919050565b6001600160a01b0382166123d25760405162461bcd60e51b815260206004820152602160248201527f45524332303a206275726e2066726f6d20746865207a65726f206164647265736044820152607360f81b60648201526084016108cb565b6123de82600083611cc0565b6001600160a01b038216600090815260208190526040902054818110156124525760405162461bcd60e51b815260206004820152602260248201527f45524332303a206275726e20616d6f756e7420657863656564732062616c616e604482015261636560f01b60648201526084016108cb565b6001600160a01b0383166000818152602081815260408083208686039055600280548790039055518581529192917fddf252ad1be2c89b69c2b068fc378daa952ba7f163c4a11628f55a4df523b3ef910160405180910390a3611cc883600084611ccd565b6000610afa8284612cd9565b825460009081908181156125105760008781526020902082016000190160408051808201909152905463ffffffff8116825264010000000090046001600160e01b03166020820152612525565b60408051808201909152600080825260208201525b905080602001516001600160e01b0316935061254584868863ffffffff16565b925060008211801561256f575061255a610ea7565b65ffffffffffff16816000015163ffffffff16145b156125b45761257d8361273f565b60008881526020902083016000190180546001600160e01b03929092166401000000000263ffffffff90921691909117905561262e565b8660405180604001604052806125d86125cb610ea7565b65ffffffffffff16611a31565b63ffffffff1681526020016125ec8661273f565b6001600160e01b0390811690915282546001810184556000938452602093849020835194909301519091166401000000000263ffffffff909316929092179101555b5050935093915050565b6000610afa8284612b71565b6001600160a01b03821661269a5760405162461bcd60e51b815260206004820152601f60248201527f45524332303a206d696e7420746f20746865207a65726f20616464726573730060448201526064016108cb565b6126a660008383611cc0565b80600260008282546126b89190612b71565b90915550506001600160a01b038216600081815260208181526040808320805486019055518481527fddf252ad1be2c89b69c2b068fc378daa952ba7f163c4a11628f55a4df523b3ef910160405180910390a3610bcc60008383611ccd565b600060ff8216601f81111561089657604051632cd44ac360e21b815260040160405180910390fd5b60006001600160e01b03821115611a965760405162461bcd60e51b815260206004820152602760248201527f53616665436173743a2076616c756520646f65736e27742066697420696e20326044820152663234206269747360c81b60648201526084016108cb565b6000815180845260005b818110156127ce576020818501810151868301820152016127b2565b506000602082860101526020601f19601f83011685010191505092915050565b602081526000610afa60208301846127a8565b80356001600160a01b038116811461281857600080fd5b919050565b6000806040838503121561283057600080fd5b61283983612801565b946020939093013593505050565b60006020828403121561285957600080fd5b5035919050565b60008060006060848603121561287557600080fd5b61287e84612801565b925061288c60208501612801565b9150604084013590509250925092565b6000602082840312156128ae57600080fd5b610afa82612801565b60ff60f81b881681526000602060e0818401526128d760e084018a6127a8565b83810360408501526128e9818a6127a8565b606085018990526001600160a01b038816608086015260a0850187905284810360c0860152855180825283870192509083019060005b8181101561293b5783518352928401929184019160010161291f565b50909c9b505050505050505050505050565b803560ff8116811461281857600080fd5b60008060008060008060c0878903121561297757600080fd5b61298087612801565b9550602087013594506040870135935061299c6060880161294d565b92506080870135915060a087013590509295509295509295565b600080600080600080600060e0888a0312156129d157600080fd5b6129da88612801565b96506129e860208901612801565b95506040880135945060608801359350612a046080890161294d565b925060a0880135915060c0880135905092959891949750929550565b60008060408385031215612a3357600080fd5b612a3c83612801565b9150612a4a60208401612801565b90509250929050565b60008060408385031215612a6657600080fd5b612a6f83612801565b9150602083013563ffffffff81168114612a8857600080fd5b809150509250929050565b600181811c90821680612aa757607f821691505b602082108103611cba57634e487b7160e01b600052602260045260246000fd5b60208082526019908201527f4e6f7420656e6f75676820746f6b656e7320746f20766f746500000000000000604082015260600190565b6020808252603a908201527f436f6e7472616374206973206e6f7420617070726f76656420746f207472616e60408201527f73666572207468697320616d6f756e74206f6620746f6b656e73000000000000606082015260800190565b634e487b7160e01b600052601160045260246000fd5b8082018082111561089657610896612b5b565b600181815b80851115612bbf578160001904821115612ba557612ba5612b5b565b80851615612bb257918102915b93841c9390800290612b89565b509250929050565b600082612bd657506001610896565b81612be357506000610896565b8160018114612bf95760028114612c0357612c1f565b6001915050610896565b60ff841115612c1457612c14612b5b565b50506001821b610896565b5060208310610133831016604e8410600b8410161715612c42575081810a610896565b612c4c8383612b84565b8060001904821115612c6057612c60612b5b565b029392505050565b6000610afa8383612bc7565b634e487b7160e01b600052601260045260246000fd5b600082612ca757634e487b7160e01b600052601260045260246000fd5b500490565b808202811582820484141761089657610896612b5b565b634e487b7160e01b600052603260045260246000fd5b8181038181111561089657610896612b5b565b634e487b7160e01b600052602160045260246000fdfea2646970667358221220f12552a5765c48cc4ffa7f565d85bfa8df92e16731e922b9993fb21696ba779d64736f6c63430008130033",
  "immutableReferences": {
    "3461": [
      {
        "length": 32,
        "start": 5951
      }
    ],
    "3463": [
      {
        "length": 32,
        "start": 5909
      }
    ],
    "3465": [
      {
        "length": 32,
        "start": 5867
      }
    ],
    "3467": [
      {
        "length": 32,
        "start": 6032
      }
    ],
    "3469": [
      {
        "length": 32,
        "start": 6072
      }
    ],
    "3472": [
      {
        "length": 32,
        "start": 3525
      }
    ],
    "3475": [
      {
        "length": 32,
        "start": 3568
      }
    ]
  },
  "source": "// SPDX-License-Identifier: MIT\npragma solidity ^0.8.9;\n\nimport \"../node_modules/@openzeppelin/contracts/token/ERC20/ERC20.sol\";\nimport \"../node_modules/@openzeppelin/contracts/token/ERC20/extensions/ERC20Burnable.sol\";\nimport \"../node_modules/@openzeppelin/contracts/security/Pausable.sol\";\nimport \"../node_modules/@openzeppelin/contracts/access/Ownable.sol\";\nimport \"../node_modules/@openzeppelin/contracts/token/ERC20/extensions/draft-ERC20Permit.sol\";\nimport \"../node_modules/@openzeppelin/contracts/token/ERC20/extensions/ERC20Votes.sol\";\n\ncontract MyToken is ERC20, ERC20Burnable, Pausable, Ownable, ERC20Permit, ERC20Votes {\n    uint256 public tokenPrice = 0.0001 ether; // This value denotes 1 ETH = 10000 Tokens\n\n    enum Vote {YES, NO, ABSTAIN}\n\n    uint256 public totalYesVotes = 0;\n    uint256 public totalNoVotes = 0;\n    uint256 public totalAbstainVotes = 0;\n\n    event Mint(address indexed to, uint256 amount);\n    event YesVote(address indexed voter, uint256 power);\n    event NoVote(address indexed voter, uint256 power);\n    event AbstainVote(address indexed voter, uint256 power);\n\n    constructor() ERC20(\"testGOV\", \"GOV\") ERC20Permit(\"testGOV\") {}\n\n    function approveContract(uint256 amount) public {\n        approve(address(this), amount);\n    }\n\n    function pause() public onlyOwner {\n        _pause();\n    }\n\n    function unpause() public onlyOwner {\n        _unpause();\n    }\n\n    function decimals() public view virtual override returns (uint8) {\n        return 18;\n    }\n\n    function approveAll() public returns (bool) { //give the right to the contract to spend all the tokens of the user\n        uint256 allowance = balanceOf(msg.sender);\n        _approve(msg.sender, address(this), allowance);\n        return true;\n    }\n\n\n    function mint(address to) public payable {\n        require(msg.value >= 0.0001 ether,\"Invalid amount sent\");\n        uint256 amountToMint = (msg.value / tokenPrice)*(10**uint256(decimals())); // 1 ETH = 10000 Tokens\n        _mint(to, amountToMint);\n\n        emit Mint(to, amountToMint);\n    }\n\n    function voteYes(uint256 amount) public {\n        require(amount <= balanceOf(msg.sender), \"Not enough tokens to vote\");\n        require(allowance(msg.sender, address(this)) >= amount, \"Contract is not approved to transfer this amount of tokens\");\n        transfer(address(this), amount);\n\n        totalYesVotes += amount;  // Updating the total Yes Votes\n\n        emit YesVote(msg.sender, amount);\n    }\n\n    function voteNo(uint256 amount) public {\n        require(amount <= balanceOf(msg.sender), \"Not enough tokens to vote\");\n        require(allowance(msg.sender, address(this)) >= amount, \"Contract is not approved to transfer this amount of tokens\");\n        transfer(address(this), amount);\n\n        totalNoVotes += amount;  // Updating the total No Votes\n\n        emit NoVote(msg.sender, amount);\n    }\n\n    function voteAbstain(uint256 amount) public {\n        require(amount <= balanceOf(msg.sender), \"Not enough tokens to vote\");\n        require(allowance(msg.sender, address(this)) >= amount, \"Contract is not approved to transfer this amount of tokens\");\n        transfer(address(this), amount);\n\n        totalAbstainVotes += amount;  // Updating the total Abstain Votes\n\n        emit AbstainVote(msg.sender, amount);\n    }\n\n    function _beforeTokenTransfer(address from, address to, uint256 amount)\n        internal\n        whenNotPaused\n        override\n    {\n        super._beforeTokenTransfer(from, to, amount);\n    }\n\n    function _afterTokenTransfer(address from, address to, uint256 amount)\n        internal\n        override(ERC20, ERC20Votes)\n    {\n        super._afterTokenTransfer(from, to, amount);\n    }\n\n    function _mint(address to, uint256 amount)\n        internal\n        override(ERC20, ERC20Votes)\n    {\n        super._mint(to, amount);\n    }\n\n    function _burn(address account, uint256 amount)\n        internal\n        override(ERC20, ERC20Votes)\n    {\n        super._burn(account, amount);\n    }\n}\n",
  "sourcePath": "/root/Thesis/ethereum-backend/code/contracts/token.sol",
  "compiler": {
    "name": "solc",
    "version": "0.8.19+commit.7dd6d404.Emscripten.clang"
  },
  "schemaVersion": "3.4.14",
  "updatedAt": "2023-08-03T18:15:51.168Z",
  "networkType": "ethereum",
  "devdoc": {
    "events": {
      "Approval(address,address,uint256)": {
        "details": "Emitted when the allowance of a `spender` for an `owner` is set by a call to {approve}. `value` is the new allowance."
      },
      "DelegateChanged(address,address,address)": {
        "details": "Emitted when an account changes their delegate."
      },
      "DelegateVotesChanged(address,uint256,uint256)": {
        "details": "Emitted when a token transfer or delegate change results in changes to a delegate's number of votes."
      },
      "EIP712DomainChanged()": {
        "details": "MAY be emitted to signal that the domain could have changed."
      },
      "Paused(address)": {
        "details": "Emitted when the pause is triggered by `account`."
      },
      "Transfer(address,address,uint256)": {
        "details": "Emitted when `value` tokens are moved from one account (`from`) to another (`to`). Note that `value` may be zero."
      },
      "Unpaused(address)": {
        "details": "Emitted when the pause is lifted by `account`."
      }
    },
    "kind": "dev",
    "methods": {
      "CLOCK_MODE()": {
        "details": "Description of the clock"
      },
      "DOMAIN_SEPARATOR()": {
        "details": "See {IERC20Permit-DOMAIN_SEPARATOR}."
      },
      "allowance(address,address)": {
        "details": "See {IERC20-allowance}."
      },
      "approve(address,uint256)": {
        "details": "See {IERC20-approve}. NOTE: If `amount` is the maximum `uint256`, the allowance is not updated on `transferFrom`. This is semantically equivalent to an infinite approval. Requirements: - `spender` cannot be the zero address."
      },
      "balanceOf(address)": {
        "details": "See {IERC20-balanceOf}."
      },
      "burn(uint256)": {
        "details": "Destroys `amount` tokens from the caller. See {ERC20-_burn}."
      },
      "burnFrom(address,uint256)": {
        "details": "Destroys `amount` tokens from `account`, deducting from the caller's allowance. See {ERC20-_burn} and {ERC20-allowance}. Requirements: - the caller must have allowance for ``accounts``'s tokens of at least `amount`."
      },
      "checkpoints(address,uint32)": {
        "details": "Get the `pos`-th checkpoint for `account`."
      },
      "clock()": {
        "details": "Clock used for flagging checkpoints. Can be overridden to implement timestamp based checkpoints (and voting)."
      },
      "decimals()": {
        "details": "Returns the number of decimals used to get its user representation. For example, if `decimals` equals `2`, a balance of `505` tokens should be displayed to a user as `5.05` (`505 / 10 ** 2`). Tokens usually opt for a value of 18, imitating the relationship between Ether and Wei. This is the default value returned by this function, unless it's overridden. NOTE: This information is only used for _display_ purposes: it in no way affects any of the arithmetic of the contract, including {IERC20-balanceOf} and {IERC20-transfer}."
      },
      "decreaseAllowance(address,uint256)": {
        "details": "Atomically decreases the allowance granted to `spender` by the caller. This is an alternative to {approve} that can be used as a mitigation for problems described in {IERC20-approve}. Emits an {Approval} event indicating the updated allowance. Requirements: - `spender` cannot be the zero address. - `spender` must have allowance for the caller of at least `subtractedValue`."
      },
      "delegate(address)": {
        "details": "Delegate votes from the sender to `delegatee`."
      },
      "delegateBySig(address,uint256,uint256,uint8,bytes32,bytes32)": {
        "details": "Delegates votes from signer to `delegatee`"
      },
      "delegates(address)": {
        "details": "Get the address `account` is currently delegating to."
      },
      "eip712Domain()": {
        "details": "See {EIP-5267}. _Available since v4.9._"
      },
      "getPastTotalSupply(uint256)": {
        "details": "Retrieve the `totalSupply` at the end of `timepoint`. Note, this value is the sum of all balances. It is NOT the sum of all the delegated votes! Requirements: - `timepoint` must be in the past"
      },
      "getPastVotes(address,uint256)": {
        "details": "Retrieve the number of votes for `account` at the end of `timepoint`. Requirements: - `timepoint` must be in the past"
      },
      "getVotes(address)": {
        "details": "Gets the current votes balance for `account`"
      },
      "increaseAllowance(address,uint256)": {
        "details": "Atomically increases the allowance granted to `spender` by the caller. This is an alternative to {approve} that can be used as a mitigation for problems described in {IERC20-approve}. Emits an {Approval} event indicating the updated allowance. Requirements: - `spender` cannot be the zero address."
      },
      "name()": {
        "details": "Returns the name of the token."
      },
      "nonces(address)": {
        "details": "See {IERC20Permit-nonces}."
      },
      "numCheckpoints(address)": {
        "details": "Get number of checkpoints for `account`."
      },
      "owner()": {
        "details": "Returns the address of the current owner."
      },
      "paused()": {
        "details": "Returns true if the contract is paused, and false otherwise."
      },
      "permit(address,address,uint256,uint256,uint8,bytes32,bytes32)": {
        "details": "See {IERC20Permit-permit}."
      },
      "renounceOwnership()": {
        "details": "Leaves the contract without owner. It will not be possible to call `onlyOwner` functions. Can only be called by the current owner. NOTE: Renouncing ownership will leave the contract without an owner, thereby disabling any functionality that is only available to the owner."
      },
      "symbol()": {
        "details": "Returns the symbol of the token, usually a shorter version of the name."
      },
      "totalSupply()": {
        "details": "See {IERC20-totalSupply}."
      },
      "transfer(address,uint256)": {
        "details": "See {IERC20-transfer}. Requirements: - `to` cannot be the zero address. - the caller must have a balance of at least `amount`."
      },
      "transferFrom(address,address,uint256)": {
        "details": "See {IERC20-transferFrom}. Emits an {Approval} event indicating the updated allowance. This is not required by the EIP. See the note at the beginning of {ERC20}. NOTE: Does not update the allowance if the current allowance is the maximum `uint256`. Requirements: - `from` and `to` cannot be the zero address. - `from` must have a balance of at least `amount`. - the caller must have allowance for ``from``'s tokens of at least `amount`."
      },
      "transferOwnership(address)": {
        "details": "Transfers ownership of the contract to a new account (`newOwner`). Can only be called by the current owner."
      }
    },
    "version": 1
  },
  "userdoc": {
    "kind": "user",
    "methods": {},
    "version": 1
  }
}